{
  "result": {
    "hash": "0000000000000002cb2f0d030e9744cd6d93b913b80958b232e4f0b84d828ecf",
    "confirmations": 12045,
    "size": 34476,
    "height": 1500000,
    "version": 536870912,
    "versionHex": "20000000",
    "merkleroot": "a1302fd89ad90284ec2282f058018e7f567e731851a523987b8fd49437839a5c",
    "tx": [
      {
        "txid": "cc80c1b9768195613e67703c6aca3df45f0705f585da8498d1ffaef3b746352a",
        "version": 3,
        "type": 5,
        "size": 222,
        "locktime": 0,
        "vin": [
          {
            "coinbase": "0360e3161b5c4c55584f525c0000000094cbe9530d1d4bacc73880f193f3fc0e",
            "sequence": 0
          }
        ],
        "vout": [
          {
            "value": 0.19590108,
            "valueSat": "19590108",
            "n": 0,
            "scriptPubKey": {
              "asm": "OP_DUP OP_HASH160 8bf9a55d3864e49d0bb9f8cc75b6ab3949526ab8 OP_EQUALVERIFY OP_CHECKSIG",
              "hex": "76a9148bf9a55d3864e49d0bb9f8cc75b6ab3949526ab888ac",
              "reqSigs": 1,
              "type": "pubkeyhash",
              "addresses": ["XoSxpd5VYNQvKbXbEaDKt6P1aZANzAkXrJ"]
            }
          },
          {
            "value": 1.42979426,
            "valueSat": 142979426,
            "n": 1,
            "scriptPubKey": {
              "asm": "OP_DUP OP_HASH160 6194aa8a24f41f818f8758d1db9e279b681e8ab6 OP_EQUALVERIFY OP_CHECKSIG",
              "hex": "76a9146194aa8a24f41f818f8758d1db9e279b681e8ab688ac",
              "reqSigs": 1,
              "type": "pubkeyhash",
              "addresses": ["XjaoUNGvsEsWQrJQjAEarUdHwJdkuuLRZo"]
            }
          }
        ],
        "extraPayloadSize": 70,
        "extraPayload": "020060e3160098560f92bf9d380ceecaba4bcb2e34bf3b89abefb0f93ec1214f91dc9a42d277edc905233322065f86ac733246029d09f5b727e84b90af54d382b441065ddb83",
        "cbTx": {
          "version": 2,
          "height": 1500000,
          "merkleRootMNList": "77d2429adc914f21c13ef9b0efab893bbf342ecb4bbacaee0c389dbf920f5698",
          "merkleRootQuorums": "83db5d0641b482d354af904be827b7f5099d02463273ac865f0622332305c9ed"
        },
        "hex": "03000500010000000000000000000000000000000000000000000000000000000000000000ffffffff200360e3161b5c4c55584f525c0000000094cbe9530d1d4bacc73880f193f3fc0e0000000002228a7707000000001976a9148bf9a55d3864e49d0bb9f8cc75b6ab3949526ab888ac62b18508000000001976a9146194aa8a24f41f818f8758d1db9e279b681e8ab688ac0000000046020060e3160098560f92bf9d380ceecaba4bcb2e34bf3b89abefb0f93ec1214f91dc9a42d277edc905233322065f86ac733246029d09f5b727e84b90af54d382b441065ddb83",
        "instantlock": true,
        "instantlock_internal": false
      },
      {
        "txid": "7423bfb792e5ea0b60f658c170c7a2abcddaa589b4e51c6d68021537ce6e3b04",
        "version": 2,
        "type": 0,
        "size": 916,
        "locktime": 0,
        "vin": [
          {
            "txid": "349d5d9f790abb57aa08b29a58b4d18462d149f44dca01bc16f42b8ff657920d",
            "vout": 0,
            "scriptSig": {
              "asm": "304402206797af53f3065601979784f7deff27c3626562600ff37fdbff10dabaf2a9500a02204326edc4b99e0476002833e3b78a7c0197642931bb946239a897a98f4d0c8a80[ALL|ANYONECANPAY] 0329795c0b6b87d6a003f33456ffdfc895c3968396e62f5305500a99a223964a28",
              "hex": "47304402206797af53f3065601979784f7deff27c3626562600ff37fdbff10dabaf2a9500a02204326edc4b99e0476002833e3b78a7c0197642931bb946239a897a98f4d0c8a8081210329795c0b6b87d6a003f33456ffdfc895c3968396e62f5305500a99a223964a28"
            },
            "sequence": 4294967295
          },
          {
            "txid": "bba05e6e47ec7dc98aa16b9cd5134a567e4a316192f265030402e20955968c8b",
            "vout": 2,
            "scriptSig": {
              "asm": "304402201342f0b205c352b0010be62036679f8b24ad261cf19d76cd357acc3906d3fbb302206986d6704cd8f40afae0b68db61898accd8673d0962600ff2cf1bdfd90ad2279[ALL|ANYONECANPAY] 034c33948f4271f4448695d58e2e130cb0752e07031540daa454ba051f0be5a276",
              "hex": "47304402201342f0b205c352b0010be62036679f8b24ad261cf19d76cd357acc3906d3fbb302206986d6704cd8f40afae0b68db61898accd8673d0962600ff2cf1bdfd90ad22798121034c33948f4271f4448695d58e2e130cb0752e07031540daa454ba051f0be5a276"
            },
            "sequence": 4294967295
          },
          {
            "txid": "bba05e6e47ec7dc98aa16b9cd5134a567e4a316192f265030402e20955968c8b",
            "vout": 6,
            "scriptSig": {
              "asm": "30440220089edecbb602555ffb98d558e176471be166a8c8ea34c4f904d4676ef89ef49d02205c953910d83bb6798a11a897b5443053a163f669f8467441745017ba99e28004[ALL] 0281a3b7e07d49cbe284ff382bd76df396c8f318997c389dd566d0f7726830bbc4",
              "hex": "4730440220089edecbb602555ffb98d558e176471be166a8c8ea34c4f904d4676ef89ef49d02205c953910d83bb6798a11a897b5443053a163f669f8467441745017ba99e2800401210281a3b7e07d49cbe284ff382bd76df396c8f318997c389dd566d0f7726830bbc4"
            },
            "sequence": 4294967295
          },
          {
            "txid": "d575ba9b1aa8dda5c05b127520f90c67f440917783b13361441bef7e3700e6e5",
            "vout": 0,
            "scriptSig": {
              "asm": "3044022031fcc1eb98822af82464be3f043b432653e2bf4891d9bc30407453dde17fd8b502204abf41d26506cfb86f951d2de2034ce3cfe0aef19e8c9df059e813ed1ac82086[ALL|ANYONECANPAY] 029fb3926fa7f9a5b047cb0d32592520dc02e39b68c20f46f71c66da8f302ee72e",
              "hex": "473044022031fcc1eb98822af82464be3f043b432653e2bf4891d9bc30407453dde17fd8b502204abf41d26506cfb86f951d2de2034ce3cfe0aef19e8c9df059e813ed1ac820868121029fb3926fa7f9a5b047cb0d32592520dc02e39b68c20f46f71c66da8f302ee72e"
            },
            "sequence": 4294967295
          },
          {
            "txid": "d575ba9b1aa8dda5c05b127520f90c67f440917783b13361441bef7e3700e6e5",
            "vout": 4,
            "scriptSig": {
              "asm": "3045022100c1eee0eb3f9effdb0b1f09b5875b1eb380742b81f620ffd557fe25748af1911f0220544ee829c8588d0ef92543d5b45eab8db2487b30080935c517bca389e5906c47[ALL|ANYONECANPAY] 03e34d32c9cd6d4a6bb5246d07e2ea2b18ae664e95364004f8d4f0c4e2b1009b8c",
              "hex": "483045022100c1eee0eb3f9effdb0b1f09b5875b1eb380742b81f620ffd557fe25748af1911f0220544ee829c8588d0ef92543d5b45eab8db2487b30080935c517bca389e5906c47812103e34d32c9cd6d4a6bb5246d07e2ea2b18ae664e95364004f8d4f0c4e2b1009b8c"
            },
            "sequence": 4294967295
          }
        ],
        "vout": [
          {
            "value": 0.00100001,
            "valueSat": 100001,
            "n": 0,
            "scriptPubKey": {
              "asm": "OP_DUP OP_HASH160 22dd243df2aa74dbfee206c27de57a262f5df85d OP_EQUALVERIFY OP_CHECKSIG",
              "hex": "76a91422dd243df2aa74dbfee206c27de57a262f5df85d88ac",
              "reqSigs": 1,
              "type": "pubkeyhash",
              "addresses": ["XdsBixiHjLxMwGCQzqLmQAdNw1oD2BXykU"]
            }
          },
          {
            "value": 0.00100001,
            "valueSat": 100001,
            "n": 1,
            "scriptPubKey": {
              "asm": "OP_DUP OP_HASH160 2969f42c8108916018473489681037b166a75843 OP_EQUALVERIFY OP_CHECKSIG",
              "hex": "76a9142969f42c8108916018473489681037b166a7584388ac",
              "reqSigs": 1,
              "type": "pubkeyhash",
              "addresses": ["XeTpTvBzQUh7rKTyQYMTDdyZqxBesTHNfp"]
            }
          },
          {
            "value": 0.00100001,
            "valueSat": 100001,
            "n": 2,
            "scriptPubKey": {
              "asm": "OP_DUP OP_HASH160 6e7fbcb4e30a96f2b987a8104e799c94ad68f54b OP_EQUALVERIFY OP_CHECKSIG",
              "hex": "76a9146e7fbcb4e30a96f2b987a8104e799c94ad68f54b88ac",
              "reqSigs": 1,
              "type": "pubkeyhash",
              "addresses": ["Xkm7Bgmop5qLHEEgfZxxLAQRhAwURD228q"]
            }
          },
          {
            "value": 0.00100001,
            "valueSat": 100001,
            "n": 3,
            "scriptPubKey": {
              "asm": "OP_DUP OP_HASH160 d03b2fdf2dcd12406411cbdee2022df6f30c8bb1 OP_EQUALVERIFY OP_CHECKSIG",
              "hex": "76a914d03b2fdf2dcd12406411cbdee2022df6f30c8bb188ac",
              "reqSigs": 1,
              "type": "pubkeyhash",
              "addresses": ["XufsHYDQVxftFzAptfz5GgPTQg3tKSwFqR"]
            }
          },
          {
            "value": 0.00100001,
            "valueSat": 100001,
            "n": 4,
            "scriptPubKey": {
              "asm": "OP_DUP OP_HASH160 d1b1c7f2c19e28bafb7514ce464798134c9fc80a OP_EQUALVERIFY OP_CHECKSIG",
              "hex": "76a914d1b1c7f2c19e28bafb7514ce464798134c9fc80a88ac",
              "reqSigs": 1,
              "type": "pubkeyhash",
              "addresses": ["Xuoc2nm5Qfdew4idMJv9wgTmb6yBNnY6ac"]
            }
          }
        ],
        "hex": "02000000050d9257f68f2bf416bc01ca4df449d16284d1b4589ab208aa57bb0a799f5d9d34000000006a47304402206797af53f3065601979784f7deff27c3626562600ff37fdbff10dabaf2a9500a02204326edc4b99e0476002833e3b78a7c0197642931bb946239a897a98f4d0c8a8081210329795c0b6b87d6a003f33456ffdfc895c3968396e62f5305500a99a223964a28ffffffff8b8c965509e202040365f29261314a7e564a13d59c6ba18ac97dec476e5ea0bb020000006a47304402201342f0b205c352b0010be62036679f8b24ad261cf19d76cd357acc3906d3fbb302206986d6704cd8f40afae0b68db61898accd8673d0962600ff2cf1bdfd90ad22798121034c33948f4271f4448695d58e2e130cb0752e07031540daa454ba051f0be5a276ffffffff8b8c965509e202040365f29261314a7e564a13d59c6ba18ac97dec476e5ea0bb060000006a4730440220089edecbb602555ffb98d558e176471be166a8c8ea34c4f904d4676ef89ef49d02205c953910d83bb6798a11a897b5443053a163f669f8467441745017ba99e2800401210281a3b7e07d49cbe284ff382bd76df396c8f318997c389dd566d0f7726830bbc4ffffffffe5e600377eef1b446133b183779140f4670cf92075125bc0a5dda81a9bba75d5000000006a473044022031fcc1eb98822af82464be3f043b432653e2bf4891d9bc30407453dde17fd8b502204abf41d26506cfb86f951d2de2034ce3cfe0aef19e8c9df059e813ed1ac820868121029fb3926fa7f9a5b047cb0d32592520dc02e39b68c20f46f71c66da8f302ee72effffffffe5e600377eef1b446133b183779140f4670cf92075125bc0a5dda81a9bba75d5040000006b483045022100c1eee0eb3f9effdb0b1f09b5875b1eb380742b81f620ffd557fe25748af1911f0220544ee829c8588d0ef92543d5b45eab8db2487b30080935c517bca389e5906c47812103e34d32c9cd6d4a6bb5246d07e2ea2b18ae664e95364004f8d4f0c4e2b1009b8cffffffff05a1860100000000001976a91422dd243df2aa74dbfee206c27de57a262f5df85d88aca1860100000000001976a9142969f42c8108916018473489681037b166a7584388aca1860100000000001976a9146e7fbcb4e30a96f2b987a8104e799c94ad68f54b88aca1860100000000001976a914d03b2fdf2dcd12406411cbdee2022df6f30c8bb188aca1860100000000001976a914d1b1c7f2c19e28bafb7514ce464798134c9fc80a88ac00000000",
        "instantlock": true,
        "instantlock_internal": false
      },
      {
        "txid": "d847a73b6d30c04e8a549f1acd74b06c1b8e453da3cf083c4af56888cda7cfbd",
        "version": 2,
        "type": 0,
        "size": 736,
        "locktime": 0,
        "vin": [
          {
            "txid": "2ad34f75bed3897625557950b43d1ce1d0aa507357472bf44e29345e853707a0",
            "vout": 0,
            "scriptSig": {
              "asm": "30450221008cdccc2c5974f298e62ca005c784f2412b4e37e3d8b5fad00ce9c9e2532edbe7022017a2739d67499a4605da435b6be5eb6df0b241742eb77a089c80e9a7838cbba5[ALL|ANYONECANPAY] 031d4b0b51fdfab5097bd4e4ee39650d2d1fb2975d8757f5455452bc32aa292fc1",
              "hex": "4830450221008cdccc2c5974f298e62ca005c784f2412b4e37e3d8b5fad00ce9c9e2532edbe7022017a2739d67499a4605da435b6be5eb6df0b241742eb77a089c80e9a7838cbba58121031d4b0b51fdfab5097bd4e4ee39650d2d1fb2975d8757f5455452bc32aa292fc1"
            },
            "sequence": 4294967295
          },
          {
            "txid": "342ee49aeb655468d8266e3d3b628918c2e6a8a0073863f3b85ec1c6a19ec0ca",
            "vout": 3,
            "scriptSig": {
              "asm": "3045022100ee1a1f6d62d3d62a915c3baccf216949df07d0cc06acda59553f29d0cee59473022044cec7f3335c60acf90bb31047ea7efed9e5cc4830202d8038561107046293bc[ALL|ANYONECANPAY] 031c02c1ae1542a375eb67c3222e8ea1bfa00a85c305478b63558e7468bfe56207",
              "hex": "483045022100ee1a1f6d62d3d62a915c3baccf216949df07d0cc06acda59553f29d0cee59473022044cec7f3335c60acf90bb31047ea7efed9e5cc4830202d8038561107046293bc8121031c02c1ae1542a375eb67c3222e8ea1bfa00a85c305478b63558e7468bfe56207"
            },
            "sequence": 4294967295
          },
          {
            "txid": "5d6513bcec441346ee112693a972ade62da1b787e325cde7903ea3cedaf65bee",
            "vout": 0,
            "scriptSig": {
              "asm": "304402207943c92e472d46fd7703687d1d386157d3f48f87a4dbe3bcd800ca0043c7d84702200428d7f5de9b80f1a78136dde5039d8653a4137d7a20d58390cb7743005ad5fb[ALL|ANYONECANPAY] 02cbb02d618c9b0e786d7f1bb9622143849e8d9ef47ae60d2a432c1b94846e2d58",
              "hex": "47304402207943c92e472d46fd7703687d1d386157d3f48f87a4dbe3bcd800ca0043c7d84702200428d7f5de9b80f1a78136dde5039d8653a4137d7a20d58390cb7743005ad5fb812102cbb02d618c9b0e786d7f1bb9622143849e8d9ef47ae60d2a432c1b94846e2d58"
            },
            "sequence": 4294967295
          },
          {
            "txid": "5d6513bcec441346ee112693a972ade62da1b787e325cde7903ea3cedaf65bee",
            "vout": 8,
            "scriptSig": {
              "asm": "304402205fd28e10626eece889b375e678d277d5a6ecd19d06a9e434c493d43134d1038d02201d0d7c6a993bf163f4579720cfc2c92163d8d9eeea5203baef7d97bda86d3ead[ALL|ANYONECANPAY] 02d80b3cb94c2049c8db4ed4b5aceb3f9ca80d29aeb51448c9ac372183c9781083",
              "hex": "47304402205fd28e10626eece889b375e678d277d5a6ecd19d06a9e434c493d43134d1038d02201d0d7c6a993bf163f4579720cfc2c92163d8d9eeea5203baef7d97bda86d3ead812102d80b3cb94c2049c8db4ed4b5aceb3f9ca80d29aeb51448c9ac372183c9781083"
            },
            "sequence": 4294967295
          }
        ],
        "vout": [
          {
            "value": 0.0100001,
            "valueSat": 1000010,
            "n": 0,
            "scriptPubKey": {
              "asm": "OP_DUP OP_HASH160 168bbd23ca434386e0a15afe5cea12a94079e742 OP_EQUALVERIFY OP_CHECKSIG",
              "hex": "76a914168bbd23ca434386e0a15afe5cea12a94079e74288ac",
              "reqSigs": 1,
              "type": "pubkeyhash",
              "addresses": ["Xck46hRDPEhH1tiDUG8k2q29SysrzrfhZd"]
            }
          },
          {
            "value": 0.0100001,
            "valueSat": 1000010,
            "n": 1,
            "scriptPubKey": {
              "asm": "OP_DUP OP_HASH160 70ffbb8c105b01dcdda6aba9d7aa99f1cb9c4f47 OP_EQUALVERIFY OP_CHECKSIG",
              "hex": "76a91470ffbb8c105b01dcdda6aba9d7aa99f1cb9c4f4788ac",
              "reqSigs": 1,
              "type": "pubkeyhash",
              "addresses": ["XkzKsMLUmGpDoCR4NEZxzToJLgUzMUdjbB"]
            }
          },
          {
            "value": 0.0100001,
            "valueSat": 1000010,
            "n": 2,
            "scriptPubKey": {
              "asm": "OP_DUP OP_HASH160 a12872e5f56aa808bbed1f58292bc912e3dc2bbc OP_EQUALVERIFY OP_CHECKSIG",
              "hex": "76a914a12872e5f56aa808bbed1f58292bc912e3dc2bbc88ac",
              "reqSigs": 1,
              "type": "pubkeyhash",
              "addresses": ["XqNy5a6uo2oFT1GXxMF3oghsXBoFk77vyF"]
            }
          },
          {
            "value": 0.0100001,
            "valueSat": 1000010,
            "n": 3,
            "scriptPubKey": {
              "asm": "OP_DUP OP_HASH160 cc6b1b1a3d239d3a8ed38199b5b29021fb8bd680 OP_EQUALVERIFY OP_CHECKSIG",
              "hex": "76a914cc6b1b1a3d239d3a8ed38199b5b29021fb8bd68088ac",
              "reqSigs": 1,
              "type": "pubkeyhash",
              "addresses": ["XuKhzEUTiU3mQAgBBJZLqQVkohkM9TRjVp"]
            }
          }
        ],
        "hex": "0200000004a00737855e34294ef42b47577350aad0e11c3db4507955257689d3be754fd32a000000006b4830450221008cdccc2c5974f298e62ca005c784f2412b4e37e3d8b5fad00ce9c9e2532edbe7022017a2739d67499a4605da435b6be5eb6df0b241742eb77a089c80e9a7838cbba58121031d4b0b51fdfab5097bd4e4ee39650d2d1fb2975d8757f5455452bc32aa292fc1ffffffffcac09ea1c6c15eb8f3633807a0a8e6c21889623b3d6e26d8685465eb9ae42e34030000006b483045022100ee1a1f6d62d3d62a915c3baccf216949df07d0cc06acda59553f29d0cee59473022044cec7f3335c60acf90bb31047ea7efed9e5cc4830202d8038561107046293bc8121031c02c1ae1542a375eb67c3222e8ea1bfa00a85c305478b63558e7468bfe56207ffffffffee5bf6dacea33e90e7cd25e387b7a12de6ad72a9932611ee461344ecbc13655d000000006a47304402207943c92e472d46fd7703687d1d386157d3f48f87a4dbe3bcd800ca0043c7d84702200428d7f5de9b80f1a78136dde5039d8653a4137d7a20d58390cb7743005ad5fb812102cbb02d618c9b0e786d7f1bb9622143849e8d9ef47ae60d2a432c1b94846e2d58ffffffffee5bf6dacea33e90e7cd25e387b7a12de6ad72a9932611ee461344ecbc13655d080000006a47304402205fd28e10626eece889b375e678d277d5a6ecd19d06a9e434c493d43134d1038d02201d0d7c6a993bf163f4579720cfc2c92163d8d9eeea5203baef7d97bda86d3ead812102d80b3cb94c2049c8db4ed4b5aceb3f9ca80d29aeb51448c9ac372183c9781083ffffffff044a420f00000000001976a914168bbd23ca434386e0a15afe5cea12a94079e74288ac4a420f00000000001976a91470ffbb8c105b01dcdda6aba9d7aa99f1cb9c4f4788ac4a420f00000000001976a914a12872e5f56aa808bbed1f58292bc912e3dc2bbc88ac4a420f00000000001976a914cc6b1b1a3d239d3a8ed38199b5b29021fb8bd68088ac00000000",
        "instantlock": true,
        "instantlock_internal": false
      },
      {
        "txid": "257cf06031508e0c98281dce36b8053025b4c940a9babf129ef09055871e4576",
        "version": 1,
        "type": 0,
        "size": 224,
        "locktime": 0,
        "vin": [
          {
            "txid": "9d340b9f72976b1a85679e0b617d46a442ae654fc964eaeea4928e56841c94cb",
            "vout": 1,
            "scriptSig": {
              "asm": "3045022100f90a8505b12de10c19095355df6cba1a73d455f210bed98cfb4902557ef6a193022020ef00a956fe59b3b2c0998436e1558d682fcdbcc259cd79cf971f379ebf4c11[ALL] 02ff2285ef9ca9282f983d12e60aafd4ffa5960ee65a61f52a8cef1bda00b57468",
              "hex": "483045022100f90a8505b12de10c19095355df6cba1a73d455f210bed98cfb4902557ef6a193022020ef00a956fe59b3b2c0998436e1558d682fcdbcc259cd79cf971f379ebf4c11012102ff2285ef9ca9282f983d12e60aafd4ffa5960ee65a61f52a8cef1bda00b57468"
            },
            "sequence": 4294967295
          }
        ],
        "vout": [
          {
            "value": 1.01483085,
            "valueSat": 101483085,
            "n": 0,
            "scriptPubKey": {
              "asm": "OP_HASH160 65e5e28cddc135f3042b29e736d78e09ba5fdf50 OP_EQUAL",
              "hex": "a91465e5e28cddc135f3042b29e736d78e09ba5fdf5087",
              "reqSigs": 1,
              "type": "scripthash",
              "addresses": ["7bhSPoNLn5WYUCMrw7AFqN2dN1gSwffYnC"]
            }
          },
          {
            "value": 10.43189683,
            "valueSat": 1043189683,
            "n": 1,
            "scriptPubKey": {
              "asm": "OP_DUP OP_HASH160 54a934a0dac0a99211572610a799e94f3293be41 OP_EQUALVERIFY OP_CHECKSIG",
              "hex": "76a91454a934a0dac0a99211572610a799e94f3293be4188ac",
              "reqSigs": 1,
              "type": "pubkeyhash",
              "addresses": ["XiQVHycpqtT4KLAv5uUT5kNHYAR4SuRrRg"]
            }
          }
        ],
        "hex": "0100000001cb941c84568e92a4eeea64c94f65ae42a4467d610b9e67851a6b97729f0b349d010000006b483045022100f90a8505b12de10c19095355df6cba1a73d455f210bed98cfb4902557ef6a193022020ef00a956fe59b3b2c0998436e1558d682fcdbcc259cd79cf971f379ebf4c11012102ff2285ef9ca9282f983d12e60aafd4ffa5960ee65a61f52a8cef1bda00b57468ffffffff024d820c060000000017a91465e5e28cddc135f3042b29e736d78e09ba5fdf5087b3cf2d3e000000001976a91454a934a0dac0a99211572610a799e94f3293be4188ac00000000",
        "instantlock": true,
        "instantlock_internal": false
      },
      {
        "txid": "2139a6d334400fe4c72d4f00c42909b22698451f9dd71c343fe9527dc70a8538",
        "version": 1,
        "type": 0,
        "size": 226,
        "locktime": 0,
        "vin": [
          {
            "txid": "5da79b6f016521a92b6ed45803f99950649efdeb495fd27e3e7d309ac611336c",
            "vout": 1,
            "scriptSig": {
              "asm": "3045022100baf11e486e08b55d9992ec7611bdba30d6a28c2460e1ef8d59f0a374eec63785022025f7482f78cb27a08e6570e4b21717553c1d5969a433c3b9cdb0ed82b1c84785[ALL] 03c140b7a1ab24d84dc4632e4d556b1d3b88bbcd90e977de274c34263053b16f72",
              "hex": "483045022100baf11e486e08b55d9992ec7611bdba30d6a28c2460e1ef8d59f0a374eec63785022025f7482f78cb27a08e6570e4b21717553c1d5969a433c3b9cdb0ed82b1c84785012103c140b7a1ab24d84dc4632e4d556b1d3b88bbcd90e977de274c34263053b16f72"
            },
            "sequence": 4294967295
          }
        ],
        "vout": [
          {
            "value": 0.7093196,
            "valueSat": 70931960,
            "n": 0,
            "scriptPubKey": {
              "asm": "OP_DUP OP_HASH160 fd2a79fe73094ae1e96eaa9d629d282cfe1a4f5f OP_EQUALVERIFY OP_CHECKSIG",
              "hex": "76a914fd2a79fe73094ae1e96eaa9d629d282cfe1a4f5f88ac",
              "reqSigs": 1,
              "type": "pubkeyhash",
              "addresses": ["XymTg7EHtbhuP134ZVFgrThxdH3MmxmWeh"]
            }
          },
          {
            "value": 0.0634804,
            "valueSat": 6348040,
            "n": 1,
            "scriptPubKey": {
              "asm": "OP_DUP OP_HASH160 a48abf368cd21db35cafdbb2891e91593030baa3 OP_EQUALVERIFY OP_CHECKSIG",
              "hex": "76a914a48abf368cd21db35cafdbb2891e91593030baa388ac",
              "reqSigs": 1,
              "type": "pubkeyhash",
              "addresses": ["Xqgrs24StRyCsive5LA1zws9r87bBXG2ma"]
            }
          }
        ],
        "hex": "01000000016c3311c69a307d3e7ed25f49ebfd9e645099f90358d46e2ba92165016f9ba75d010000006b483045022100baf11e486e08b55d9992ec7611bdba30d6a28c2460e1ef8d59f0a374eec63785022025f7482f78cb27a08e6570e4b21717553c1d5969a433c3b9cdb0ed82b1c84785012103c140b7a1ab24d84dc4632e4d556b1d3b88bbcd90e977de274c34263053b16f72ffffffff02f8553a04000000001976a914fd2a79fe73094ae1e96eaa9d629d282cfe1a4f5f88ac08dd6000000000001976a914a48abf368cd21db35cafdbb2891e91593030baa388ac00000000",
        "instantlock": true,
        "instantlock_internal": false
      },
      {
        "txid": "77a8b4240d587f0c8df78528b1de9242af98e93e17479670693d933ad3801968",
        "version": 2,
        "type": 0,
        "size": 487,
        "locktime": 1499999,
        "vin": [
          {
            "txid": "5e6d626b0f878ba07a277d1b50c728afac752da43e741fb55f4acbed774b81e5",
            "vout": 0,
            "scriptSig": {
              "asm": "3044022021341cee12d01588c824db43dca99883bd92020074633a99fae44d55647ee2da02203e2a27dd1bf1de8bf0ffaab74440c819a2beedb0b9a6633ae68a898d25bda451[ALL] 02007be2c34c6621786017562144a8f9783cba00badf9485a6bd0fc50ba712f652",
              "hex": "473044022021341cee12d01588c824db43dca99883bd92020074633a99fae44d55647ee2da02203e2a27dd1bf1de8bf0ffaab74440c819a2beedb0b9a6633ae68a898d25bda451012102007be2c34c6621786017562144a8f9783cba00badf9485a6bd0fc50ba712f652"
            },
            "sequence": 4294967294
          },
          {
            "txid": "8b3ef03580be19aadf8b73ae4275c5c741363f4ec3f9417e2587fb4d3fdad472",
            "vout": 1,
            "scriptSig": {
              "asm": "3045022100f94b5ccfb5395a06336169328a7103d517b33a9666cca48a2f035da834383b6a02202daddf5e1150e39ccdb7c8686d43b329af3b6cbc6b3a0d047585f42731f8e58e[ALL] 0224ca76cbf0365a3c7f7b07172f3188f85a70d00e76c1b9a32b464626859a6d7d",
              "hex": "483045022100f94b5ccfb5395a06336169328a7103d517b33a9666cca48a2f035da834383b6a02202daddf5e1150e39ccdb7c8686d43b329af3b6cbc6b3a0d047585f42731f8e58e01210224ca76cbf0365a3c7f7b07172f3188f85a70d00e76c1b9a32b464626859a6d7d"
            },
            "sequence": 4294967294
          },
          {
            "txid": "937c6a7cea1e4322083583533f03ee8934f0e6eaad06f45e90ec2507ff11455f",
            "vout": 2,
            "scriptSig": {
              "asm": "3045022100e69faf516f02005af00a75c5bd5721823e13dc98f1f4286c5220e0124b93018e022044c5054eff56529992244ea13d7765578aaaab42cbd3e85445aa1dc18bf36f9f[ALL] 03dab370e02dd548e3ac70be622882ba3e6bbea173510ecf8a1da599a01666fec6",
              "hex": "483045022100e69faf516f02005af00a75c5bd5721823e13dc98f1f4286c5220e0124b93018e022044c5054eff56529992244ea13d7765578aaaab42cbd3e85445aa1dc18bf36f9f012103dab370e02dd548e3ac70be622882ba3e6bbea173510ecf8a1da599a01666fec6"
            },
            "sequence": 4294967294
          }
        ],
        "vout": [
          {
            "value": 0.2,
            "valueSat": 20000000,
            "n": 0,
            "scriptPubKey": {
              "asm": "OP_DUP OP_HASH160 5cd5a6fe499ff77cb55c2130a0c7b23010081769 OP_EQUALVERIFY OP_CHECKSIG",
              "hex": "76a9145cd5a6fe499ff77cb55c2130a0c7b2301008176988ac",
              "reqSigs": 1,
              "type": "pubkeyhash",
              "addresses": ["Xj9hwj1cFAJpUY8DAcWqcMMg24mVyVZ9GP"]
            }
          }
        ],
        "hex": "0200000003e5814b77edcb4a5fb51f743ea42d75acaf28c7501b7d277aa08b870f6b626d5e000000006a473044022021341cee12d01588c824db43dca99883bd92020074633a99fae44d55647ee2da02203e2a27dd1bf1de8bf0ffaab74440c819a2beedb0b9a6633ae68a898d25bda451012102007be2c34c6621786017562144a8f9783cba00badf9485a6bd0fc50ba712f652feffffff72d4da3f4dfb87257e41f9c34e3f3641c7c57542ae738bdfaa19be8035f03e8b010000006b483045022100f94b5ccfb5395a06336169328a7103d517b33a9666cca48a2f035da834383b6a02202daddf5e1150e39ccdb7c8686d43b329af3b6cbc6b3a0d047585f42731f8e58e01210224ca76cbf0365a3c7f7b07172f3188f85a70d00e76c1b9a32b464626859a6d7dfeffffff5f4511ff0725ec905ef406adeae6f03489ee033f5383350822431eea7c6a7c93020000006b483045022100e69faf516f02005af00a75c5bd5721823e13dc98f1f4286c5220e0124b93018e022044c5054eff56529992244ea13d7765578aaaab42cbd3e85445aa1dc18bf36f9f012103dab370e02dd548e3ac70be622882ba3e6bbea173510ecf8a1da599a01666fec6feffffff01002d3101000000001976a9145cd5a6fe499ff77cb55c2130a0c7b2301008176988ac5fe31600",
        "instantlock": true,
        "instantlock_internal": false
      }
    ],
    "cbTx": {
      "version": 2,
      "height": 1500000,
      "merkleRootMNList": "77d2429adc914f21c13ef9b0efab893bbf342ecb4bbacaee0c389dbf920f5698",
      "merkleRootQuorums": "83db5d0641b482d354af904be827b7f5099d02463273ac865f0622332305c9ed"
    },
    "time": 1625606293,
    "mediantime": 1625605344,
    "nonce": 1095047868,
    "bits": "192fa83e",
    "difficulty": 90120739.70847146,
    "chainwork": "000000000000000000000000000000000000000000005cc3c1ba9c4e8e7b2a9c",
    "nTx": 6,
    "previousblockhash": "0000000000000017e784aa5d0d7fe95324c374f5f3e9601ae60a42843c73b88e",
    "nextblockhash": "000000000000001ef1f293492a81c97faa09517d105a402fe362e9f34ac6a40d",
    "chainlock": true
  },
  "error": null,
  "id": 1
}
