{
  "result": {
    "txid": "5da79b6f016521a92b6ed45803f99950649efdeb495fd27e3e7d309ac611336c",
    "version": 1,
    "type": 0,
    "size": 226,
    "locktime": 0,
    "vin": [
      {
        "txid": "d1d608b17f58b5b14d95e9197ff5a52eba8928c973199699e34f9b7409103916",
        "vout": 1,
        "scriptSig": {
          "asm": "3045022100813a5fc1689ac5467ddb4909cde9edd2697d6a8d2e415cfdf5cd4db69fa710ae0220283050832a4771884eb6503ebeac19cca08fc7f37dc0af81a47755a032fbc834[ALL] 02d707704a60a70c91be84ac523c5749a3f5c175d7f6af680dc7cb3600171bb142",
          "hex": "483045022100813a5fc1689ac5467ddb4909cde9edd2697d6a8d2e415cfdf5cd4db69fa710ae0220283050832a4771884eb6503ebeac19cca08fc7f37dc0af81a47755a032fbc834012102d707704a60a70c91be84ac523c5749a3f5c175d7f6af680dc7cb3600171bb142"
        },
        "value": 0.825,
        "valueSat": 82500000,
        "address": "XxxxzTLQdS1RBY9vhYay4t24tycZcXjn8S",
        "sequence": 4294967295
      }
    ],
    "vout": [
      {
        "value": 0.0502,
        "valueSat": 5020000,
        "n": 0,
        "scriptPubKey": {
          "asm": "OP_DUP OP_HASH160 2e12aa1194d0c5b17b3546d70b58d52e4a812a90 OP_EQUALVERIFY OP_CHECKSIG",
          "hex": "76a9142e12aa1194d0c5b17b3546d70b58d52e4a812a9088ac",
          "reqSigs": 1,
          "type": "pubkeyhash",
          "addresses": ["XetTGu3TAxJeCPYZfphD1k9TFEXjAAhgbP"]
        },
        "spentTxId": "17b21f06da92508cb3f22847a6f7f4109aa2d1e4439ed7e835884f090020fd08",
        "spentIndex": 6,
        "spentHeight": 1500071
      },
      {
        "value": 0.7738,
        "valueSat": 77380000,
        "n": 1,
        "scriptPubKey": {
          "asm": "OP_DUP OP_HASH160 a48abf368cd21db35cafdbb2891e91593030baa3 OP_EQUALVERIFY OP_CHECKSIG",
          "hex": "76a914a48abf368cd21db35cafdbb2891e91593030baa388ac",
          "reqSigs": 1,
          "type": "pubkeyhash",
          "addresses": ["Xqgrs24StRyCsive5LA1zws9r87bBXG2ma"]
        },
        "spentTxId": "2139a6d334400fe4c72d4f00c42909b22698451f9dd71c343fe9527dc70a8538",
        "spentIndex": 0,
        "spentHeight": 1500000
      }
    ],
    "hex": "010000000116391009749b4fe399961973c92889ba2ea5f57f19e9954db1b5587fb108d6d1010000006b483045022100813a5fc1689ac5467ddb4909cde9edd2697d6a8d2e415cfdf5cd4db69fa710ae0220283050832a4771884eb6503ebeac19cca08fc7f37dc0af81a47755a032fbc834012102d707704a60a70c91be84ac523c5749a3f5c175d7f6af680dc7cb3600171bb142ffffffff0260994c00000000001976a9142e12aa1194d0c5b17b3546d70b58d52e4a812a9088aca0b99c04000000001976a914a48abf368cd21db35cafdbb2891e91593030baa388ac00000000",
    "blockhash": "000000000000002f0d6d759da4182a59ac89b6cac337255a2803f60b7747e52f",
    "height": 1499990,
    "confirmations": 12150,
    "time": 1625604989,
    "blocktime": 1625604989,
    "instantlock": true,
    "instantlock_internal": false,
    "chainlock": true
  },
  "error": null,
  "id": 1
}
