{
  "result": {
    "txid": "5e6d626b0f878ba07a277d1b50c728afac752da43e741fb55f4acbed774b81e5",
    "version": 2,
    "type": 0,
    "size": 2367,
    "locktime": 0,
    "vin": [
      {
        "txid": "228140c5f72881171101cda21e3174c8cf7161a3fc0f1005c8a10ccffb0064cd",
        "vout": 6,
        "scriptSig": {
          "asm": "30440220419b988d78f73ab0085c42c01ce596a5cfe0d76627b4f3316b6eb5612b8baada022014d4f1ea0e386e008f0979e079c39f25d1b24fe70fe67444476df2459f2f0f88[ALL|ANYONECANPAY] 033f1dcb35d869ff4d4ef120e634d574ac7f5dfba46f6939ace544f01e09dd18aa",
          "hex": "4730440220419b988d78f73ab0085c42c01ce596a5cfe0d76627b4f3316b6eb5612b8baada022014d4f1ea0e386e008f0979e079c39f25d1b24fe70fe67444476df2459f2f0f888121033f1dcb35d869ff4d4ef120e634d574ac7f5dfba46f6939ace544f01e09dd18aa"
        },
        "value": 0.100001,
        "valueSat": 10000100,
        "address": "Xo13Xj8Bmwb7i8LoLoTnmuyosvJpXKydHz",
        "sequence": 4294967295
      },
      {
        "txid": "3f29518db7f0c7ed6c35a7119cdddfa42636614ace9efda19cee65dfb796b9e2",
        "vout": 4,
        "scriptSig": {
          "asm": "304402200d5a3fb750825c50a933cd93ffe719480146015fdea42dfa717504abcbd26da80220644db4c64dca4d65f26eeb2c4713cfe171b9f9ac5e190011912988e212bcfe6f[ALL|ANYONECANPAY] 029c3c9e9c79b89fb9e796ae79c521c0a7711bc4825f45453653068a553a65e69a",
          "hex": "47304402200d5a3fb750825c50a933cd93ffe719480146015fdea42dfa717504abcbd26da80220644db4c64dca4d65f26eeb2c4713cfe171b9f9ac5e190011912988e212bcfe6f8121029c3c9e9c79b89fb9e796ae79c521c0a7711bc4825f45453653068a553a65e69a"
        },
        "value": 0.100001,
        "valueSat": 10000100,
        "address": "XjzG5Rfqouwi5UPqkNqcZ9UaZazGusWuvc",
        "sequence": 4294967295
      },
      {
        "txid": "3f29518db7f0c7ed6c35a7119cdddfa42636614ace9efda19cee65dfb796b9e2",
        "vout": 7,
        "scriptSig": {
          "asm": "30440220268f46e24de4e0a4ef1a4a543dfc4662e008508231565ed1bab4e75f18236e640220399e0d18d4fe3b00bf24b78efcf4a63a59b3981efe95bfdcb0af23fee1a8ad7a[ALL|ANYONECANPAY] 0383a5a500237200dc2b717384f87e1161dfcfd2666b700c1e8fe61a8668160810",
          "hex": "4730440220268f46e24de4e0a4ef1a4a543dfc4662e008508231565ed1bab4e75f18236e640220399e0d18d4fe3b00bf24b78efcf4a63a59b3981efe95bfdcb0af23fee1a8ad7a81210383a5a500237200dc2b717384f87e1161dfcfd2666b700c1e8fe61a8668160810"
        },
        "value": 0.100001,
        "valueSat": 10000100,
        "address": "XoH7qZ2sfk3oDmS9EKYUTzz4c76NaXdjL6",
        "sequence": 4294967295
      },
      {
        "txid": "9ab67b30805a0fe6b4ec59263de9dbd87eb97c3e0193194abe975bf6707097d0",
        "vout": 4,
        "scriptSig": {
          "asm": "304402205635fd32f1d459a5de5b989bd9ecb6d544c2cc617d3c18009c63942ce3fd25df022047758f09577e1980c0689540d1c91130759023f6baad191f389ab703adf2a55a[ALL|ANYONECANPAY] 03d1b98a5fb9c49a16e7b199e0c8340cca297ffa886f4af9d21ac1c5d43c291241",
          "hex": "47304402205635fd32f1d459a5de5b989bd9ecb6d544c2cc617d3c18009c63942ce3fd25df022047758f09577e1980c0689540d1c91130759023f6baad191f389ab703adf2a55a812103d1b98a5fb9c49a16e7b199e0c8340cca297ffa886f4af9d21ac1c5d43c291241"
        },
        "value": 0.100001,
        "valueSat": 10000100,
        "address": "Xg3aa7VRgxCBgpcSuUTSnnfdCMi1s5dWJb",
        "sequence": 4294967295
      },
      {
        "txid": "bd18393c3e76fd95b4f8242070fbf0f24bb26e5ae274bf263ce8ce70eb62daeb",
        "vout": 0,
        "scriptSig": {
          "asm": "304402204a6cb41a0392b977fa0b306ad7edc2b555258c582880bc9dc1cb604658589af5022060fd5a101850848d34a4e30231d80089db6fdec03d70add9339add9576713c7b[ALL|ANYONECANPAY] 02ef662733096ccf7e7e05cfff54772e799224038c08b036b5741c6b8b82df2d46",
          "hex": "47304402204a6cb41a0392b977fa0b306ad7edc2b555258c582880bc9dc1cb604658589af5022060fd5a101850848d34a4e30231d80089db6fdec03d70add9339add9576713c7b812102ef662733096ccf7e7e05cfff54772e799224038c08b036b5741c6b8b82df2d46"
        },
        "value": 0.100001,
        "valueSat": 10000100,
        "address": "XbLwRU9JSpozH32KTBo6P7K2cnB5rass9p",
        "sequence": 4294967295
      },
      {
        "txid": "bd18393c3e76fd95b4f8242070fbf0f24bb26e5ae274bf263ce8ce70eb62daeb",
        "vout": 3,
        "scriptSig": {
          "asm": "3045022100821be5f8b622fe841bac18dd125f0c258432770306b156837588fea6bf70a8d1022017d16d0eecffc1dba4933e14e0ffb256119b9ae7014b12442ad1acd1482cffe9[ALL|ANYONECANPAY] 0248b40c8f2c752f545b0e4f1c2581ddf5bab31d43114bce818556d807ddd1fa0c",
          "hex": "483045022100821be5f8b622fe841bac18dd125f0c258432770306b156837588fea6bf70a8d1022017d16d0eecffc1dba4933e14e0ffb256119b9ae7014b12442ad1acd1482cffe981210248b40c8f2c752f545b0e4f1c2581ddf5bab31d43114bce818556d807ddd1fa0c"
        },
        "value": 0.100001,
        "valueSat": 10000100,
        "address": "XgUbAT7hYWNcBsQyiMH8x7xFndf9he1udD",
        "sequence": 4294967295
      },
      {
        "txid": "bd18393c3e76fd95b4f8242070fbf0f24bb26e5ae274bf263ce8ce70eb62daeb",
        "vout": 4,
        "scriptSig": {
          "asm": "304402200800fed74f320009632307fabf39ad766ae90f3252643e463c5ed79b0f8298b3022030ef6b9bac7d32a1d81f3e626149cfec54ef1e6798e94dec8f1b0b1066e77f3c[ALL|ANYONECANPAY] 022822e19620403096405a54d5b222f977c46c53875e0b096b5e3066c044792588",
          "hex": "47304402200800fed74f320009632307fabf39ad766ae90f3252643e463c5ed79b0f8298b3022030ef6b9bac7d32a1d81f3e626149cfec54ef1e6798e94dec8f1b0b1066e77f3c8121022822e19620403096405a54d5b222f977c46c53875e0b096b5e3066c044792588"
        },
        "value": 0.100001,
        "valueSat": 10000100,
        "address": "Xh1WaMxvGBJG5gfX62URrF3GWQQh71i4kW",
        "sequence": 4294967295
      },
      {
        "txid": "bd18393c3e76fd95b4f8242070fbf0f24bb26e5ae274bf263ce8ce70eb62daeb",
        "vout": 5,
        "scriptSig": {
          "asm": "3044022033398804e19f1dde4a7c9c3110ee79aecdc1dd893d7ec44238dba64ff397feb402203852c2b3506e214e9f7cf0b6003d220e72854a5804e5f541485847d468a0c164[ALL|ANYONECANPAY] 03ff4daeeda9d4fb9abdc89c67ac787eb4808d9254bdd4afc00557db6350474590",
          "hex": "473044022033398804e19f1dde4a7c9c3110ee79aecdc1dd893d7ec44238dba64ff397feb402203852c2b3506e214e9f7cf0b6003d220e72854a5804e5f541485847d468a0c164812103ff4daeeda9d4fb9abdc89c67ac787eb4808d9254bdd4afc00557db6350474590"
        },
        "value": 0.100001,
        "valueSat": 10000100,
        "address": "XkdbkMSqfYsgTN18E47UUMPm9yGKLFWC6s",
        "sequence": 4294967295
      },
      {
        "txid": "c6385fc8c821eb0872a8176d4755c34d810c814399d394393748b5c354e56e48",
        "vout": 8,
        "scriptSig": {
          "asm": "3045022100b07433a03366eabc37eea85bfad4b161af83ba3a7c97d8b5585566eaf62c795a022023d1f7f8cbe9f4fb5be2bb99228985d8ec65f43569467f258dbee869bf6ffe01[ALL|ANYONECANPAY] 0399f3f5bedc1d4ae002f13c4dcb41f6be093a87ed521e1678d9ed3be2629935a9",
          "hex": "483045022100b07433a03366eabc37eea85bfad4b161af83ba3a7c97d8b5585566eaf62c795a022023d1f7f8cbe9f4fb5be2bb99228985d8ec65f43569467f258dbee869bf6ffe0181210399f3f5bedc1d4ae002f13c4dcb41f6be093a87ed521e1678d9ed3be2629935a9"
        },
        "value": 0.100001,
        "valueSat": 10000100,
        "address": "XkUo1RTaJFsNUaMRHFHL4ieQbRHtGZVffB",
        "sequence": 4294967295
      },
      {
        "txid": "cd2c098c9c1fbb8aa798c2b4f85b9012a5107d557501557234c0a779ee226d07",
        "vout": 4,
        "scriptSig": {
          "asm": "3044022078a5c27c6aac8cc2774f191fd93a82a9135d35364f18b233244097f709bfc5580220292cda5dba39d82709d1445807d1411e45d019724d043b3805fa446acc728187[ALL|ANYONECANPAY] 0340a106e9fc45db7639c5f27a060df0181af151f17cc3dc1be6e21a91f1068476",
          "hex": "473044022078a5c27c6aac8cc2774f191fd93a82a9135d35364f18b233244097f709bfc5580220292cda5dba39d82709d1445807d1411e45d019724d043b3805fa446acc72818781210340a106e9fc45db7639c5f27a060df0181af151f17cc3dc1be6e21a91f1068476"
        },
        "value": 0.100001,
        "valueSat": 10000100,
        "address": "XfjKjWyTPuxWytddo35UCTs28nduFHi4gi",
        "sequence": 4294967295
      },
      {
        "txid": "e1051a754d0ace9e866e692f656ce3dec29877493f0ef312ebd76389656af5b7",
        "vout": 3,
        "scriptSig": {
          "asm": "3045022100802f0ec50ffdb7b621e7118a308feca11f88b15f8dfab32d40dbe6ee6b5c6a9f022064ad375332f2f783d69ed62b2849fa76a048a9ed76f24cd7ed6e9124fdaea3ca[ALL|ANYONECANPAY] 02f117681b12ed68ce3e63d25bf4819cce1c13513a79e991f3f8f290a3fb69bf26",
          "hex": "483045022100802f0ec50ffdb7b621e7118a308feca11f88b15f8dfab32d40dbe6ee6b5c6a9f022064ad375332f2f783d69ed62b2849fa76a048a9ed76f24cd7ed6e9124fdaea3ca812102f117681b12ed68ce3e63d25bf4819cce1c13513a79e991f3f8f290a3fb69bf26"
        },
        "value": 0.100001,
        "valueSat": 10000100,
        "address": "XhQSbWjqEPuLxWfjE92JK8vYLzrBZ2CRKH",
        "sequence": 4294967295
      },
      {
        "txid": "e1051a754d0ace9e866e692f656ce3dec29877493f0ef312ebd76389656af5b7",
        "vout": 7,
        "scriptSig": {
          "asm": "3045022100b965a49cd9a10408ab7535fbbd05573d8f52e354ddf43ffc0dc22000fb53b7d802202fdc525804889383f43b1aa734cf9a3466b01fc1612a589f02362821af7ccc85[ALL|ANYONECANPAY] 038968b21a17a44764d45bea7a1244ab2665a15f69e0778730df5f2cc58d295ef5",
          "hex": "483045022100b965a49cd9a10408ab7535fbbd05573d8f52e354ddf43ffc0dc22000fb53b7d802202fdc525804889383f43b1aa734cf9a3466b01fc1612a589f02362821af7ccc858121038968b21a17a44764d45bea7a1244ab2665a15f69e0778730df5f2cc58d295ef5"
        },
        "value": 0.100001,
        "valueSat": 10000100,
        "address": "XqgT8xMsWrWojN7apKxtUN2hYvhD2zSHfF",
        "sequence": 4294967295
      },
      {
        "txid": "e1051a754d0ace9e866e692f656ce3dec29877493f0ef312ebd76389656af5b7",
        "vout": 8,
        "scriptSig": {
          "asm": "304402200bdecbba8a1998e8248d450249b1f151b514dfef8bda6cfcae8920fb0ff1385a02203a8ee154988b1a4727666ad3a68f1c21ef6cba2cac4c7b3204aa86b8d83f02d2[ALL|ANYONECANPAY] 03d18595669a14bbbf7636fdaecb36785aa2b6d84406e0aae25f0af7b00a4d124f",
          "hex": "47304402200bdecbba8a1998e8248d450249b1f151b514dfef8bda6cfcae8920fb0ff1385a02203a8ee154988b1a4727666ad3a68f1c21ef6cba2cac4c7b3204aa86b8d83f02d2812103d18595669a14bbbf7636fdaecb36785aa2b6d84406e0aae25f0af7b00a4d124f"
        },
        "value": 0.100001,
        "valueSat": 10000100,
        "address": "Xqjhj8aJQJde6Kuf4JNSkLXYC1SepZH2wz",
        "sequence": 4294967295
      }
    ],
    "vout": [
      {
        "value": 0.100001,
        "valueSat": 10000100,
        "n": 0,
        "scriptPubKey": {
          "asm": "OP_DUP OP_HASH160 129f1b34b379148e51840d9c484d4e3facb84ee1 OP_EQUALVERIFY OP_CHECKSIG",
          "hex": "76a914129f1b34b379148e51840d9c484d4e3facb84ee188ac",
          "reqSigs": 1,
          "type": "pubkeyhash",
          "addresses": ["XcPJbbzJ835JfLd946V1iuvdxu9g5C7Da5"]
        },
        "spentTxId": "77a8b4240d587f0c8df78528b1de9242af98e93e17479670693d933ad3801968",
        "spentIndex": 0,
        "spentHeight": 1500000
      },
      {
        "value": 0.100001,
        "valueSat": 10000100,
        "n": 1,
        "scriptPubKey": {
          "asm": "OP_DUP OP_HASH160 1513f5299249bfdab2d4fca1db5828bcce47aa0f OP_EQUALVERIFY OP_CHECKSIG",
          "hex": "76a9141513f5299249bfdab2d4fca1db5828bcce47aa0f88ac",
          "reqSigs": 1,
          "type": "pubkeyhash",
          "addresses": ["XccHvxutZYBeys4N1fTiyxkY6DyWuYgPLn"]
        },
        "spentTxId": "c20db1617fc346e91857868d9e7fd39e30bf6a53264509d9340ff0f8531f632a",
        "spentIndex": 2,
        "spentHeight": 1497271
      },
      {
        "value": 0.100001,
        "valueSat": 10000100,
        "n": 2,
        "scriptPubKey": {
          "asm": "OP_DUP OP_HASH160 281c24b5cdb61bd1cefe17d04e42271a0d70563e OP_EQUALVERIFY OP_CHECKSIG",
          "hex": "76a914281c24b5cdb61bd1cefe17d04e42271a0d70563e88ac",
          "reqSigs": 1,
          "type": "pubkeyhash",
          "addresses": ["XeLvaN5rYfNZ1VN2xkqZ28A1JHDXiYPyrd"]
        },
        "spentTxId": "1480e0c13c08a21857623395fdbaa9ee81c6c75cb044823843d27a1c1ac0d132",
        "spentIndex": 0,
        "spentHeight": 1497272
      },
      {
        "value": 0.100001,
        "valueSat": 10000100,
        "n": 3,
        "scriptPubKey": {
          "asm": "OP_DUP OP_HASH160 7fe2d634999c67e8e901612f7c6f9a7bb13ee695 OP_EQUALVERIFY OP_CHECKSIG",
          "hex": "76a9147fe2d634999c67e8e901612f7c6f9a7bb13ee69588ac",
          "reqSigs": 1,
          "type": "pubkeyhash",
          "addresses": ["XnM3PWUJswDJMqgM9qoj3dn5CvSPEzcvmt"]
        },
        "spentTxId": "e4f01118b20c41d624010cf8546bdf64c3a0086ee4c4e794cce657846f51e673",
        "spentIndex": 0,
        "spentHeight": 1498680
      },
      {
        "value": 0.100001,
        "valueSat": 10000100,
        "n": 4,
        "scriptPubKey": {
          "asm": "OP_DUP OP_HASH160 a08e5fb552622239872ba3fcc8c2cfdb12c4f528 OP_EQUALVERIFY OP_CHECKSIG",
          "hex": "76a914a08e5fb552622239872ba3fcc8c2cfdb12c4f52888ac",
          "reqSigs": 1,
          "type": "pubkeyhash",
          "addresses": ["XqKnWFn2KqBnfKJauLNWAgW3CQQtCZLu8Y"]
        },
        "spentTxId": "877ce9efbc31e80486c00d49acbff77b99acbd4642e288b4329f8be7fdc8f66b",
        "spentIndex": 1,
        "spentHeight": 1497271
      },
      {
        "value": 0.100001,
        "valueSat": 10000100,
        "n": 5,
        "scriptPubKey": {
          "asm": "OP_DUP OP_HASH160 a6088bd8d6bf3a81585f57bcc65729dd80cc8e98 OP_EQUALVERIFY OP_CHECKSIG",
          "hex": "76a914a6088bd8d6bf3a81585f57bcc65729dd80cc8e9888ac",
          "reqSigs": 1,
          "type": "pubkeyhash",
          "addresses": ["XqpkEuLD1bidayD4jztp43gCrM3HVBbxXS"]
        },
        "spentTxId": "346f58825c6da44955478da348d52743e76af5e8c4b94f613e89ac496527556a",
        "spentIndex": 11,
        "spentHeight": 1500232
      },
      {
        "value": 0.100001,
        "valueSat": 10000100,
        "n": 6,
        "scriptPubKey": {
          "asm": "OP_DUP OP_HASH160 a6e35d915c37945d10b6db112760d1bebd59e29c OP_EQUALVERIFY OP_CHECKSIG",
          "hex": "76a914a6e35d915c37945d10b6db112760d1bebd59e29c88ac",
          "reqSigs": 1,
          "type": "pubkeyhash",
          "addresses": ["XquGNjF7oo7RTuQMaDwQgxGwHURXTiBUgN"]
        },
        "spentTxId": "1480e0c13c08a21857623395fdbaa9ee81c6c75cb044823843d27a1c1ac0d132",
        "spentIndex": 1,
        "spentHeight": 1497272
      },
      {
        "value": 0.100001,
        "valueSat": 10000100,
        "n": 7,
        "scriptPubKey": {
          "asm": "OP_DUP OP_HASH160 b9354e613206583bfa476586a3f5487c56f2c2b0 OP_EQUALVERIFY OP_CHECKSIG",
          "hex": "76a914b9354e613206583bfa476586a3f5487c56f2c2b088ac",
          "reqSigs": 1,
          "type": "pubkeyhash",
          "addresses": ["Xsa8hX6hcPfBYzGeaTyRxqcJAU563F4cQG"]
        },
        "spentTxId": "fa226622c72aa7b4186d0a6e475f4a8ace42d6e3779e702f0b6192fc2b9ddfc3",
        "spentIndex": 1,
        "spentHeight": 1497271
      },
      {
        "value": 0.100001,
        "valueSat": 10000100,
        "n": 8,
        "scriptPubKey": {
          "asm": "OP_DUP OP_HASH160 c82c08a6d1bcd4aeebcb81a65e426a5d186aa88c OP_EQUALVERIFY OP_CHECKSIG",
          "hex": "76a914c82c08a6d1bcd4aeebcb81a65e426a5d186aa88c88ac",
          "reqSigs": 1,
          "type": "pubkeyhash",
          "addresses": ["XtwFj99ZA2h5Vso69eHm3kWsTyUoBj8nbv"]
        },
        "spentTxId": "c20db1617fc346e91857868d9e7fd39e30bf6a53264509d9340ff0f8531f632a",
        "spentIndex": 3,
        "spentHeight": 1497271
      },
      {
        "value": 0.100001,
        "valueSat": 10000100,
        "n": 9,
        "scriptPubKey": {
          "asm": "OP_DUP OP_HASH160 e75abd9b4017e2cc273ae47b4668c661f339cfcb OP_EQUALVERIFY OP_CHECKSIG",
          "hex": "76a914e75abd9b4017e2cc273ae47b4668c661f339cfcb88ac",
          "reqSigs": 1,
          "type": "pubkeyhash",
          "addresses": ["Xwn8dLWa1vTBdAJtH6CP6qFYbeHtnqmdrn"]
        },
        "spentTxId": "527eb42be2d9916aebd463c2de54ee53d3c4a82bd1ab15ecfbfb758cfc437bf8",
        "spentIndex": 2,
        "spentHeight": 1497272
      },
      {
        "value": 0.100001,
        "valueSat": 10000100,
        "n": 10,
        "scriptPubKey": {
          "asm": "OP_DUP OP_HASH160 e93ccebf54f4ed5caaa7e106f1f91c529ca66290 OP_EQUALVERIFY OP_CHECKSIG",
          "hex": "76a914e93ccebf54f4ed5caaa7e106f1f91c529ca6629088ac",
          "reqSigs": 1,
          "type": "pubkeyhash",
          "addresses": ["Xwx67wGp8q1bJcs4Cfgsu5EhbhBEGwrqyB"]
        },
        "spentTxId": "d560c815b97fc5466585097f289682ed47400068a2fd1712d1eb822583e9ad98",
        "spentIndex": 2,
        "spentHeight": 1497271
      },
      {
        "value": 0.100001,
        "valueSat": 10000100,
        "n": 11,
        "scriptPubKey": {
          "asm": "OP_DUP OP_HASH160 f14c7600c032e63e01b739a1f5fe3521365ff9f2 OP_EQUALVERIFY OP_CHECKSIG",
          "hex": "76a914f14c7600c032e63e01b739a1f5fe3521365ff9f288ac",
          "reqSigs": 1,
          "type": "pubkeyhash",
          "addresses": ["XxgiH5rPB54VBVNMwD1SfcBk7yqTATedgz"]
        },
        "spentTxId": "d560c815b97fc5466585097f289682ed47400068a2fd1712d1eb822583e9ad98",
        "spentIndex": 3,
        "spentHeight": 1497271
      },
      {
        "value": 0.100001,
        "valueSat": 10000100,
        "n": 12,
        "scriptPubKey": {
          "asm": "OP_DUP OP_HASH160 f9731aa96ded2e6b5f98a5b0e94aa4f7d9e253d3 OP_EQUALVERIFY OP_CHECKSIG",
          "hex": "76a914f9731aa96ded2e6b5f98a5b0e94aa4f7d9e253d388ac",
          "reqSigs": 1,
          "type": "pubkeyhash",
          "addresses": ["XyRoybVxNhwHBLeTqjLmpcGKDq4ppXp4uu"]
        },
        "spentTxId": "3bbd7d27b14cef2723b2db7a016b40597bcd1d8eed06fdb3e6c055c27fb6c2e1",
        "spentIndex": 4,
        "spentHeight": 1497272
      }
    ],
    "hex": "020000000dcd6400fbcf0ca1c805100ffca36171cfc874311ea2cd0111178128f7c5408122060000006a4730440220419b988d78f73ab0085c42c01ce596a5cfe0d76627b4f3316b6eb5612b8baada022014d4f1ea0e386e008f0979e079c39f25d1b24fe70fe67444476df2459f2f0f888121033f1dcb35d869ff4d4ef120e634d574ac7f5dfba46f6939ace544f01e09dd18aaffffffffe2b996b7df65ee9ca1fd9ece4a613626a4dfdd9c11a7356cedc7f0b78d51293f040000006a47304402200d5a3fb750825c50a933cd93ffe719480146015fdea42dfa717504abcbd26da80220644db4c64dca4d65f26eeb2c4713cfe171b9f9ac5e190011912988e212bcfe6f8121029c3c9e9c79b89fb9e796ae79c521c0a7711bc4825f45453653068a553a65e69affffffffe2b996b7df65ee9ca1fd9ece4a613626a4dfdd9c11a7356cedc7f0b78d51293f070000006a4730440220268f46e24de4e0a4ef1a4a543dfc4662e008508231565ed1bab4e75f18236e640220399e0d18d4fe3b00bf24b78efcf4a63a59b3981efe95bfdcb0af23fee1a8ad7a81210383a5a500237200dc2b717384f87e1161dfcfd2666b700c1e8fe61a8668160810ffffffffd0977070f65b97be4a1993013e7cb97ed8dbe93d2659ecb4e60f5a80307bb69a040000006a47304402205635fd32f1d459a5de5b989bd9ecb6d544c2cc617d3c18009c63942ce3fd25df022047758f09577e1980c0689540d1c91130759023f6baad191f389ab703adf2a55a812103d1b98a5fb9c49a16e7b199e0c8340cca297ffa886f4af9d21ac1c5d43c291241ffffffffebda62eb70cee83c26bf74e25a6eb24bf2f0fb702024f8b495fd763e3c3918bd000000006a47304402204a6cb41a0392b977fa0b306ad7edc2b555258c582880bc9dc1cb604658589af5022060fd5a101850848d34a4e30231d80089db6fdec03d70add9339add9576713c7b812102ef662733096ccf7e7e05cfff54772e799224038c08b036b5741c6b8b82df2d46ffffffffebda62eb70cee83c26bf74e25a6eb24bf2f0fb702024f8b495fd763e3c3918bd030000006b483045022100821be5f8b622fe841bac18dd125f0c258432770306b156837588fea6bf70a8d1022017d16d0eecffc1dba4933e14e0ffb256119b9ae7014b12442ad1acd1482cffe981210248b40c8f2c752f545b0e4f1c2581ddf5bab31d43114bce818556d807ddd1fa0cffffffffebda62eb70cee83c26bf74e25a6eb24bf2f0fb702024f8b495fd763e3c3918bd040000006a47304402200800fed74f320009632307fabf39ad766ae90f3252643e463c5ed79b0f8298b3022030ef6b9bac7d32a1d81f3e626149cfec54ef1e6798e94dec8f1b0b1066e77f3c8121022822e19620403096405a54d5b222f977c46c53875e0b096b5e3066c044792588ffffffffebda62eb70cee83c26bf74e25a6eb24bf2f0fb702024f8b495fd763e3c3918bd050000006a473044022033398804e19f1dde4a7c9c3110ee79aecdc1dd893d7ec44238dba64ff397feb402203852c2b3506e214e9f7cf0b6003d220e72854a5804e5f541485847d468a0c164812103ff4daeeda9d4fb9abdc89c67ac787eb4808d9254bdd4afc00557db6350474590ffffffff486ee554c3b548373994d39943810c814dc355476d17a87208eb21c8c85f38c6080000006b483045022100b07433a03366eabc37eea85bfad4b161af83ba3a7c97d8b5585566eaf62c795a022023d1f7f8cbe9f4fb5be2bb99228985d8ec65f43569467f258dbee869bf6ffe0181210399f3f5bedc1d4ae002f13c4dcb41f6be093a87ed521e1678d9ed3be2629935a9ffffffff076d22ee79a7c03472550175557d10a512905bf8b4c298a78abb1f9c8c092ccd040000006a473044022078a5c27c6aac8cc2774f191fd93a82a9135d35364f18b233244097f709bfc5580220292cda5dba39d82709d1445807d1411e45d019724d043b3805fa446acc72818781210340a106e9fc45db7639c5f27a060df0181af151f17cc3dc1be6e21a91f1068476ffffffffb7f56a658963d7eb12f30e3f497798c2dee36c652f696e869ece0a4d751a05e1030000006b483045022100802f0ec50ffdb7b621e7118a308feca11f88b15f8dfab32d40dbe6ee6b5c6a9f022064ad375332f2f783d69ed62b2849fa76a048a9ed76f24cd7ed6e9124fdaea3ca812102f117681b12ed68ce3e63d25bf4819cce1c13513a79e991f3f8f290a3fb69bf26ffffffffb7f56a658963d7eb12f30e3f497798c2dee36c652f696e869ece0a4d751a05e1070000006b483045022100b965a49cd9a10408ab7535fbbd05573d8f52e354ddf43ffc0dc22000fb53b7d802202fdc525804889383f43b1aa734cf9a3466b01fc1612a589f02362821af7ccc858121038968b21a17a44764d45bea7a1244ab2665a15f69e0778730df5f2cc58d295ef5ffffffffb7f56a658963d7eb12f30e3f497798c2dee36c652f696e869ece0a4d751a05e1080000006a47304402200bdecbba8a1998e8248d450249b1f151b514dfef8bda6cfcae8920fb0ff1385a02203a8ee154988b1a4727666ad3a68f1c21ef6cba2cac4c7b3204aa86b8d83f02d2812103d18595669a14bbbf7636fdaecb36785aa2b6d84406e0aae25f0af7b00a4d124fffffffff0de4969800000000001976a914129f1b34b379148e51840d9c484d4e3facb84ee188ace4969800000000001976a9141513f5299249bfdab2d4fca1db5828bcce47aa0f88ace4969800000000001976a914281c24b5cdb61bd1cefe17d04e42271a0d70563e88ace4969800000000001976a9147fe2d634999c67e8e901612f7c6f9a7bb13ee69588ace4969800000000001976a914a08e5fb552622239872ba3fcc8c2cfdb12c4f52888ace4969800000000001976a914a6088bd8d6bf3a81585f57bcc65729dd80cc8e9888ace4969800000000001976a914a6e35d915c37945d10b6db112760d1bebd59e29c88ace4969800000000001976a914b9354e613206583bfa476586a3f5487c56f2c2b088ace4969800000000001976a914c82c08a6d1bcd4aeebcb81a65e426a5d186aa88c88ace4969800000000001976a914e75abd9b4017e2cc273ae47b4668c661f339cfcb88ace4969800000000001976a914e93ccebf54f4ed5caaa7e106f1f91c529ca6629088ace4969800000000001976a914f14c7600c032e63e01b739a1f5fe3521365ff9f288ace4969800000000001976a914f9731aa96ded2e6b5f98a5b0e94aa4f7d9e253d388ac00000000",
    "blockhash": "00000000000000164512c76c88caa1fd0a967c73be7e50a7d2cae55463e26885",
    "height": 1497270,
    "confirmations": 14871,
    "time": 1625176037,
    "blocktime": 1625176037,
    "instantlock": true,
    "instantlock_internal": false,
    "chainlock": true
  },
  "error": null,
  "id": 1
}
