{
  "result": {
    "txid": "8b3ef03580be19aadf8b73ae4275c5c741363f4ec3f9417e2587fb4d3fdad472",
    "version": 2,
    "type": 0,
    "size": 1824,
    "locktime": 0,
    "vin": [
      {
        "txid": "3bbd7d27b14cef2723b2db7a016b40597bcd1d8eed06fdb3e6c055c27fb6c2e1",
        "vout": 11,
        "scriptSig": {
          "asm": "3044022067dee9633cbbafba19b091bc557b585e78c0369143eb87bc785c3ff3bb01ddf7022029cbd1099e5b1c5bd2a1bf0de9f906b3da94b7ada9f33e507e2c87b394aa611d[ALL|ANYONECANPAY] 02265c8a5282b05fd4674913fe3092008a367b56a2fd087eaf1a0f5ad8de3194bd",
          "hex": "473044022067dee9633cbbafba19b091bc557b585e78c0369143eb87bc785c3ff3bb01ddf7022029cbd1099e5b1c5bd2a1bf0de9f906b3da94b7ada9f33e507e2c87b394aa611d812102265c8a5282b05fd4674913fe3092008a367b56a2fd087eaf1a0f5ad8de3194bd"
        },
        "value": 0.100001,
        "valueSat": 10000100,
        "address": "Xy81uxCPtZjkNJYkFN6yyMeAfAWNgaxG9F",
        "sequence": 4294967295
      },
      {
        "txid": "4cfdf8b32500052c568de01ac02ccff8f7085d7010bc67d8afdf8e2d39e7eb4a",
        "vout": 0,
        "scriptSig": {
          "asm": "3045022100c42156bd581d808726d8132b279836ee51e96cc027862a1a74b65913cb76ce8502203763e8f411d274240553bc161d1c037d7156080a4001d4f83f42e7c5263887b6[ALL|ANYONECANPAY] 02ab326faa5596bb7e408f0cf0e3979eca580a6ae2f4d5576f8ec1e27b28736d21",
          "hex": "483045022100c42156bd581d808726d8132b279836ee51e96cc027862a1a74b65913cb76ce8502203763e8f411d274240553bc161d1c037d7156080a4001d4f83f42e7c5263887b6812102ab326faa5596bb7e408f0cf0e3979eca580a6ae2f4d5576f8ec1e27b28736d21"
        },
        "value": 0.100001,
        "valueSat": 10000100,
        "address": "XbN7VDviZkeEMJ1pXnP9iBRCvwt5yXuMLe",
        "sequence": 4294967295
      },
      {
        "txid": "4cfdf8b32500052c568de01ac02ccff8f7085d7010bc67d8afdf8e2d39e7eb4a",
        "vout": 6,
        "scriptSig": {
          "asm": "3045022100fee39535798252c7f389b61735684116d99445d17a5240cb3beefbaa239d10cb022027205fcdc99a9c5e35878f6941b70ce9f60b95933af7950c35aa4628bb4198be[ALL|ANYONECANPAY] 03bb1bc8bfc7e39c73b70513acdabed1a760d4c6e9c009b5899fdaf3b44a880ad1",
          "hex": "483045022100fee39535798252c7f389b61735684116d99445d17a5240cb3beefbaa239d10cb022027205fcdc99a9c5e35878f6941b70ce9f60b95933af7950c35aa4628bb4198be812103bb1bc8bfc7e39c73b70513acdabed1a760d4c6e9c009b5899fdaf3b44a880ad1"
        },
        "value": 0.100001,
        "valueSat": 10000100,
        "address": "Xru5MDWUZQ7kqc6a5nfo8dKNMTdSNVpY3m",
        "sequence": 4294967295
      },
      {
        "txid": "6c780a134d734c2486cec6af5ebaa2734b2ef2c85bcd8db789750061aa6c9f31",
        "vout": 4,
        "scriptSig": {
          "asm": "304402205727c134c2f22da666370fd087ba296b9ef8579d01c9b956df8f76e532a80ff702204dfdc659a6c0fe21b9044719d48be512deb2fb0b4fbab987532ddce532203c3c[ALL|ANYONECANPAY] 023724467efabdd47dc4db7609630f5cd8d5d397a0ea45da6e476519e79f76e3ab",
          "hex": "47304402205727c134c2f22da666370fd087ba296b9ef8579d01c9b956df8f76e532a80ff702204dfdc659a6c0fe21b9044719d48be512deb2fb0b4fbab987532ddce532203c3c8121023724467efabdd47dc4db7609630f5cd8d5d397a0ea45da6e476519e79f76e3ab"
        },
        "value": 0.100001,
        "valueSat": 10000100,
        "address": "XiG5CT62eTuwKwRDmxAdftGHhK3UQXYEk9",
        "sequence": 4294967295
      },
      {
        "txid": "b942968f33b7d1faf5ab3fbb0bee8aa07390ec0efed1cd1cfe6aa7ea33896b4d",
        "vout": 5,
        "scriptSig": {
          "asm": "304402201e623bfdcb9397ecc6a921f0530ea2fcf9ba759e4fa51938ec88d6376ac6b2f702203ec15910a122bae024a575ef35073319252b8fee37e5c9a837a63f20e8e3d370[ALL|ANYONECANPAY] 034ca5b1ab60150ecafc362232b886485d800255f8d6335f3e8e37434f7b5ff994",
          "hex": "47304402201e623bfdcb9397ecc6a921f0530ea2fcf9ba759e4fa51938ec88d6376ac6b2f702203ec15910a122bae024a575ef35073319252b8fee37e5c9a837a63f20e8e3d3708121034ca5b1ab60150ecafc362232b886485d800255f8d6335f3e8e37434f7b5ff994"
        },
        "value": 0.100001,
        "valueSat": 10000100,
        "address": "XowNpETAa6oxJFX8tE4nfQciqD5L5L2PDv",
        "sequence": 4294967295
      },
      {
        "txid": "b942968f33b7d1faf5ab3fbb0bee8aa07390ec0efed1cd1cfe6aa7ea33896b4d",
        "vout": 8,
        "scriptSig": {
          "asm": "30440220096faa694d3a07a3986552ef3b102287ec426e5cf66ed403ad1e272e7e99c27e022018fc373b2cb2d0b8c96ed8d6c54e095995774ba4676b1fdedd3d3eb1c18000a0[ALL|ANYONECANPAY] 03dd17f7251aa3215bda62b306c8823e4b5dc5a5fa70a8f05eca0c08d4a6677de1",
          "hex": "4730440220096faa694d3a07a3986552ef3b102287ec426e5cf66ed403ad1e272e7e99c27e022018fc373b2cb2d0b8c96ed8d6c54e095995774ba4676b1fdedd3d3eb1c18000a0812103dd17f7251aa3215bda62b306c8823e4b5dc5a5fa70a8f05eca0c08d4a6677de1"
        },
        "value": 0.100001,
        "valueSat": 10000100,
        "address": "XxQZh8dnFdSPig9PEAfda9bC2HGS2ftMXh",
        "sequence": 4294967295
      },
      {
        "txid": "bd18393c3e76fd95b4f8242070fbf0f24bb26e5ae274bf263ce8ce70eb62daeb",
        "vout": 1,
        "scriptSig": {
          "asm": "3045022100b2b12e5970d7b563c08dbe70141011621b7eef31bd8fd0176fb2c13cd9906574022073e02e86e55b7530cdbdc5e56199856af497978581d6ed2fd3fbd3598ec6ff1f[ALL|ANYONECANPAY] 0368f6cc74149ec09e4982a37d9be39ff05b43b0a6114c8d1038b8a4627f5dbaac",
          "hex": "483045022100b2b12e5970d7b563c08dbe70141011621b7eef31bd8fd0176fb2c13cd9906574022073e02e86e55b7530cdbdc5e56199856af497978581d6ed2fd3fbd3598ec6ff1f81210368f6cc74149ec09e4982a37d9be39ff05b43b0a6114c8d1038b8a4627f5dbaac"
        },
        "value": 0.100001,
        "valueSat": 10000100,
        "address": "Xd1nVHKxZp9gWAir2xGXSddysioPGNoti5",
        "sequence": 4294967295
      },
      {
        "txid": "c6385fc8c821eb0872a8176d4755c34d810c814399d394393748b5c354e56e48",
        "vout": 9,
        "scriptSig": {
          "asm": "3044022025b50743029453d189c8ee4208f130d1aa3ee5ee20a1334ee23afdecafb1b91802207984f62562d1d4c1c4dcd3125838e9616f5851dec139ad8c5799a06b6222505f[ALL|ANYONECANPAY] 03ec0cc4fe0829c854e850644585535e45d48f3449f135a122b045f5fbcd791a99",
          "hex": "473044022025b50743029453d189c8ee4208f130d1aa3ee5ee20a1334ee23afdecafb1b91802207984f62562d1d4c1c4dcd3125838e9616f5851dec139ad8c5799a06b6222505f812103ec0cc4fe0829c854e850644585535e45d48f3449f135a122b045f5fbcd791a99"
        },
        "value": 0.100001,
        "valueSat": 10000100,
        "address": "Xm5fXNqaHnsouktobfaPMHm8f24eUkyWBF",
        "sequence": 4294967295
      },
      {
        "txid": "cd2c098c9c1fbb8aa798c2b4f85b9012a5107d557501557234c0a779ee226d07",
        "vout": 6,
        "scriptSig": {
          "asm": "3044022065e6ca96436b30f64449c3837cbf8ecd339302f1e7d89dc24dfba7f1d15d30d802201201f485c867bd990c84155c2d899618ff87b5eafac61a32e37db93c657cbda7[ALL|ANYONECANPAY] 026366fc9be3575de9fe38891197af12b4605ccca88b042ae53fda6273e35b9c94",
          "hex": "473044022065e6ca96436b30f64449c3837cbf8ecd339302f1e7d89dc24dfba7f1d15d30d802201201f485c867bd990c84155c2d899618ff87b5eafac61a32e37db93c657cbda78121026366fc9be3575de9fe38891197af12b4605ccca88b042ae53fda6273e35b9c94"
        },
        "value": 0.100001,
        "valueSat": 10000100,
        "address": "XiZiRRiPPn9bycfU53oUJWxVX1ohCPFE7e",
        "sequence": 4294967295
      },
      {
        "txid": "e2b55c9914438c3bc8ac27ada7143e24989606388832cb448c840e47ea4d7c59",
        "vout": 3,
        "scriptSig": {
          "asm": "3045022100faec506f79dd1701d19b792ef71aabc6687d4a8f98c20ce341d464a8bc0bcc700220283868e9486f4f57f13352aa80b3a14bd57e429474cce0a593a8191f77c6e9dc[ALL|ANYONECANPAY] 03319b477f9628e512a53e0a5fb38284203d22734a8b2dc7eeac061173c675c21f",
          "hex": "483045022100faec506f79dd1701d19b792ef71aabc6687d4a8f98c20ce341d464a8bc0bcc700220283868e9486f4f57f13352aa80b3a14bd57e429474cce0a593a8191f77c6e9dc812103319b477f9628e512a53e0a5fb38284203d22734a8b2dc7eeac061173c675c21f"
        },
        "value": 0.100001,
        "valueSat": 10000100,
        "address": "XkCiYu1J4sLGtRodn5Bqzaf6P8RiERiUn7",
        "sequence": 4294967295
      }
    ],
    "vout": [
      {
        "value": 0.100001,
        "valueSat": 10000100,
        "n": 0,
        "scriptPubKey": {
          "asm": "OP_DUP OP_HASH160 3dd708398c9a4610de18d507ca708aef8a1e8c24 OP_EQUALVERIFY OP_CHECKSIG",
          "hex": "76a9143dd708398c9a4610de18d507ca708aef8a1e8c2488ac",
          "reqSigs": 1,
          "type": "pubkeyhash",
          "addresses": ["XgKpeecXHzGxieUe33T3LqVEkfdyLqUrwt"]
        },
        "spentTxId": "ec3bfee8c091e1d01053290cd51067bd3f888217fee3597540f3895161438c37",
        "spentIndex": 5,
        "spentHeight": 1497276
      },
      {
        "value": 0.100001,
        "valueSat": 10000100,
        "n": 1,
        "scriptPubKey": {
          "asm": "OP_DUP OP_HASH160 50f396689a8e0135fe0e3055ecb489807985e917 OP_EQUALVERIFY OP_CHECKSIG",
          "hex": "76a91450f396689a8e0135fe0e3055ecb489807985e91788ac",
          "reqSigs": 1,
          "type": "pubkeyhash",
          "addresses": ["Xi4shMk3zKAGwk8an3AwyXndosD63CbFLk"]
        },
        "spentTxId": "77a8b4240d587f0c8df78528b1de9242af98e93e17479670693d933ad3801968",
        "spentIndex": 1,
        "spentHeight": 1500000
      },
      {
        "value": 0.100001,
        "valueSat": 10000100,
        "n": 2,
        "scriptPubKey": {
          "asm": "OP_DUP OP_HASH160 78a6d8b98572cc9b8aea92a5b04570f16ffcbfae OP_EQUALVERIFY OP_CHECKSIG",
          "hex": "76a91478a6d8b98572cc9b8aea92a5b04570f16ffcbfae88ac",
          "reqSigs": 1,
          "type": "pubkeyhash",
          "addresses": ["Xmgnnyc9QeALy3D4A7wGZku1hmpToiFidW"]
        },
        "spentTxId": "9fa1b98ebb8c234f5fec54fed16c7667afb1a3ac8e6bd92e0032a476c3c92bc2",
        "spentIndex": 5,
        "spentHeight": 1497276
      },
      {
        "value": 0.100001,
        "valueSat": 10000100,
        "n": 3,
        "scriptPubKey": {
          "asm": "OP_DUP OP_HASH160 a50b33c505fb5589a630640aa4cfae3a7cc620ae OP_EQUALVERIFY OP_CHECKSIG",
          "hex": "76a914a50b33c505fb5589a630640aa4cfae3a7cc620ae88ac",
          "reqSigs": 1,
          "type": "pubkeyhash",
          "addresses": ["XqjWkFSKxFx95pGma19yorHa5Uyq5hYPag"]
        },
        "spentTxId": "5962388b8a87bdff7b730d938410a6b49ac257f6aed7802861b5fa332e330a5f",
        "spentIndex": 2,
        "spentHeight": 1497320
      },
      {
        "value": 0.100001,
        "valueSat": 10000100,
        "n": 4,
        "scriptPubKey": {
          "asm": "OP_DUP OP_HASH160 b8addde7e022696a31cd8539b6873b6caa95cba2 OP_EQUALVERIFY OP_CHECKSIG",
          "hex": "76a914b8addde7e022696a31cd8539b6873b6caa95cba288ac",
          "reqSigs": 1,
          "type": "pubkeyhash",
          "addresses": ["XsXLT2ceVzTdDacwtHkooxN3oFEiaBQ9ir"]
        },
        "spentTxId": "f9f6c1c6e3cea610daef5bfa945cfdb02ed39582736cdf2337cc3c50fef35f6c",
        "spentIndex": 9,
        "spentHeight": 1497304
      },
      {
        "value": 0.100001,
        "valueSat": 10000100,
        "n": 5,
        "scriptPubKey": {
          "asm": "OP_DUP OP_HASH160 ccff276782f06a0fed39fd2de3b74578f405ac1b OP_EQUALVERIFY OP_CHECKSIG",
          "hex": "76a914ccff276782f06a0fed39fd2de3b74578f405ac1b88ac",
          "reqSigs": 1,
          "type": "pubkeyhash",
          "addresses": ["XuNmLnuPNAFkAFr4QoqtCVw65VRNcmMe2k"]
        },
        "spentTxId": "ec3bfee8c091e1d01053290cd51067bd3f888217fee3597540f3895161438c37",
        "spentIndex": 6,
        "spentHeight": 1497276
      },
      {
        "value": 0.100001,
        "valueSat": 10000100,
        "n": 6,
        "scriptPubKey": {
          "asm": "OP_DUP OP_HASH160 e8460fef25ecb58c155781cfd48c826f7a1fa911 OP_EQUALVERIFY OP_CHECKSIG",
          "hex": "76a914e8460fef25ecb58c155781cfd48c826f7a1fa91188ac",
          "reqSigs": 1,
          "type": "pubkeyhash",
          "addresses": ["XwrzXmW86HMjPNBKTXwJmBfXsvToTCukSj"]
        },
        "spentTxId": "346f58825c6da44955478da348d52743e76af5e8c4b94f613e89ac496527556a",
        "spentIndex": 13,
        "spentHeight": 1500232
      },
      {
        "value": 0.100001,
        "valueSat": 10000100,
        "n": 7,
        "scriptPubKey": {
          "asm": "OP_DUP OP_HASH160 f04e1ba11a8831f1adc7f54fab0cbbef23d0e57b OP_EQUALVERIFY OP_CHECKSIG",
          "hex": "76a914f04e1ba11a8831f1adc7f54fab0cbbef23d0e57b88ac",
          "reqSigs": 1,
          "type": "pubkeyhash",
          "addresses": ["XxbTaKuBFZeJq3kLtZmUe3jZGg2Vjsvjdk"]
        },
        "spentTxId": "e4f01118b20c41d624010cf8546bdf64c3a0086ee4c4e794cce657846f51e673",
        "spentIndex": 1,
        "spentHeight": 1498680
      },
      {
        "value": 0.100001,
        "valueSat": 10000100,
        "n": 8,
        "scriptPubKey": {
          "asm": "OP_DUP OP_HASH160 f75fea629fc1d01b93a4eac25f3d7ff39bd42c7b OP_EQUALVERIFY OP_CHECKSIG",
          "hex": "76a914f75fea629fc1d01b93a4eac25f3d7ff39bd42c7b88ac",
          "reqSigs": 1,
          "type": "pubkeyhash",
          "addresses": ["XyEqdxyyjDAb71PujM787WSD4hWDZJipj8"]
        },
        "spentTxId": "9fa1b98ebb8c234f5fec54fed16c7667afb1a3ac8e6bd92e0032a476c3c92bc2",
        "spentIndex": 6,
        "spentHeight": 1497276
      },
      {
        "value": 0.100001,
        "valueSat": 10000100,
        "n": 9,
        "scriptPubKey": {
          "asm": "OP_DUP OP_HASH160 fa31052746c5b38893c3a610fc35846b820a3248 OP_EQUALVERIFY OP_CHECKSIG",
          "hex": "76a914fa31052746c5b38893c3a610fc35846b820a324888ac",
          "reqSigs": 1,
          "type": "pubkeyhash",
          "addresses": ["XyVjVBwZH5UnYLiz2avLZoYMqKqEgryHmQ"]
        },
        "spentTxId": "e4f01118b20c41d624010cf8546bdf64c3a0086ee4c4e794cce657846f51e673",
        "spentIndex": 2,
        "spentHeight": 1498680
      }
    ],
    "hex": "020000000ae1c2b67fc255c0e6b3fd06ed8e1dcd7b59406b017adbb22327ef4cb1277dbd3b0b0000006a473044022067dee9633cbbafba19b091bc557b585e78c0369143eb87bc785c3ff3bb01ddf7022029cbd1099e5b1c5bd2a1bf0de9f906b3da94b7ada9f33e507e2c87b394aa611d812102265c8a5282b05fd4674913fe3092008a367b56a2fd087eaf1a0f5ad8de3194bdffffffff4aebe7392d8edfafd867bc10705d08f7f8cf2cc01ae08d562c050025b3f8fd4c000000006b483045022100c42156bd581d808726d8132b279836ee51e96cc027862a1a74b65913cb76ce8502203763e8f411d274240553bc161d1c037d7156080a4001d4f83f42e7c5263887b6812102ab326faa5596bb7e408f0cf0e3979eca580a6ae2f4d5576f8ec1e27b28736d21ffffffff4aebe7392d8edfafd867bc10705d08f7f8cf2cc01ae08d562c050025b3f8fd4c060000006b483045022100fee39535798252c7f389b61735684116d99445d17a5240cb3beefbaa239d10cb022027205fcdc99a9c5e35878f6941b70ce9f60b95933af7950c35aa4628bb4198be812103bb1bc8bfc7e39c73b70513acdabed1a760d4c6e9c009b5899fdaf3b44a880ad1ffffffff319f6caa61007589b78dcd5bc8f22e4b73a2ba5eafc6ce86244c734d130a786c040000006a47304402205727c134c2f22da666370fd087ba296b9ef8579d01c9b956df8f76e532a80ff702204dfdc659a6c0fe21b9044719d48be512deb2fb0b4fbab987532ddce532203c3c8121023724467efabdd47dc4db7609630f5cd8d5d397a0ea45da6e476519e79f76e3abffffffff4d6b8933eaa76afe1ccdd1fe0eec9073a08aee0bbb3fabf5fad1b7338f9642b9050000006a47304402201e623bfdcb9397ecc6a921f0530ea2fcf9ba759e4fa51938ec88d6376ac6b2f702203ec15910a122bae024a575ef35073319252b8fee37e5c9a837a63f20e8e3d3708121034ca5b1ab60150ecafc362232b886485d800255f8d6335f3e8e37434f7b5ff994ffffffff4d6b8933eaa76afe1ccdd1fe0eec9073a08aee0bbb3fabf5fad1b7338f9642b9080000006a4730440220096faa694d3a07a3986552ef3b102287ec426e5cf66ed403ad1e272e7e99c27e022018fc373b2cb2d0b8c96ed8d6c54e095995774ba4676b1fdedd3d3eb1c18000a0812103dd17f7251aa3215bda62b306c8823e4b5dc5a5fa70a8f05eca0c08d4a6677de1ffffffffebda62eb70cee83c26bf74e25a6eb24bf2f0fb702024f8b495fd763e3c3918bd010000006b483045022100b2b12e5970d7b563c08dbe70141011621b7eef31bd8fd0176fb2c13cd9906574022073e02e86e55b7530cdbdc5e56199856af497978581d6ed2fd3fbd3598ec6ff1f81210368f6cc74149ec09e4982a37d9be39ff05b43b0a6114c8d1038b8a4627f5dbaacffffffff486ee554c3b548373994d39943810c814dc355476d17a87208eb21c8c85f38c6090000006a473044022025b50743029453d189c8ee4208f130d1aa3ee5ee20a1334ee23afdecafb1b91802207984f62562d1d4c1c4dcd3125838e9616f5851dec139ad8c5799a06b6222505f812103ec0cc4fe0829c854e850644585535e45d48f3449f135a122b045f5fbcd791a99ffffffff076d22ee79a7c03472550175557d10a512905bf8b4c298a78abb1f9c8c092ccd060000006a473044022065e6ca96436b30f64449c3837cbf8ecd339302f1e7d89dc24dfba7f1d15d30d802201201f485c867bd990c84155c2d899618ff87b5eafac61a32e37db93c657cbda78121026366fc9be3575de9fe38891197af12b4605ccca88b042ae53fda6273e35b9c94ffffffff597c4dea470e848c44cb328838069698243e14a7ad27acc83b8c4314995cb5e2030000006b483045022100faec506f79dd1701d19b792ef71aabc6687d4a8f98c20ce341d464a8bc0bcc700220283868e9486f4f57f13352aa80b3a14bd57e429474cce0a593a8191f77c6e9dc812103319b477f9628e512a53e0a5fb38284203d22734a8b2dc7eeac061173c675c21fffffffff0ae4969800000000001976a9143dd708398c9a4610de18d507ca708aef8a1e8c2488ace4969800000000001976a91450f396689a8e0135fe0e3055ecb489807985e91788ace4969800000000001976a91478a6d8b98572cc9b8aea92a5b04570f16ffcbfae88ace4969800000000001976a914a50b33c505fb5589a630640aa4cfae3a7cc620ae88ace4969800000000001976a914b8addde7e022696a31cd8539b6873b6caa95cba288ace4969800000000001976a914ccff276782f06a0fed39fd2de3b74578f405ac1b88ace4969800000000001976a914e8460fef25ecb58c155781cfd48c826f7a1fa91188ace4969800000000001976a914f04e1ba11a8831f1adc7f54fab0cbbef23d0e57b88ace4969800000000001976a914f75fea629fc1d01b93a4eac25f3d7ff39bd42c7b88ace4969800000000001976a914fa31052746c5b38893c3a610fc35846b820a324888ac00000000",
    "blockhash": "000000000000001968bcd3e7b7680066cf6056055f3f030ce7597fb5a7a3b15b",
    "height": 1497275,
    "confirmations": 14870,
    "time": 1625176670,
    "blocktime": 1625176670,
    "instantlock": true,
    "instantlock_internal": false,
    "chainlock": true
  },
  "error": null,
  "id": 1
}
