{
  "result": {
    "txid": "9d340b9f72976b1a85679e0b617d46a442ae654fc964eaeea4928e56841c94cb",
    "version": 1,
    "type": 0,
    "size": 669,
    "locktime": 0,
    "vin": [
      {
        "txid": "f3fcd5da965c3eff932ae6eb605d78c07524b1e775061c7be4f5290f4d23a950",
        "vout": 1,
        "scriptSig": {
          "asm": "3044022036c340bd3d607f4d35f609fcd7e863b344462d99abac75790f434fe875700e9902201f4bfeb7e9826774416f10a936d261439039b4ae83bda71071c2a98edb812985[ALL] 02288b2d0fd5b943f8ff1bcbf2b66f8f964c271e653f7c657fb268d0ada7869167",
          "hex": "473044022036c340bd3d607f4d35f609fcd7e863b344462d99abac75790f434fe875700e9902201f4bfeb7e9826774416f10a936d261439039b4ae83bda71071c2a98edb812985012102288b2d0fd5b943f8ff1bcbf2b66f8f964c271e653f7c657fb268d0ada7869167"
        },
        "value": 11.45029296,
        "valueSat": 1145029296,
        "address": "XxeiN3miqCEGEr6uZtcDBYFLHmCGHGa6zc",
        "sequence": 4294967295
      },
      {
        "txid": "5a74e477f8ecafed89e1670655f14b40402af2ba95e2597c0d1747d214371ce9",
        "vout": 1,
        "scriptSig": {
          "asm": "304502210090e4539b1dcdb3c48d328990f2f7f6b666750746ce02586db84d92b3937d6a49022062c2604fed19e1051df7f1fb240e0bad78356658eef025680bdd6fcf9b7d7eda[ALL] 0244d9b2bba3b69b3f83d9659d9dd8acf24de935d2eaacd8627e01b040488a7053",
          "hex": "48304502210090e4539b1dcdb3c48d328990f2f7f6b666750746ce02586db84d92b3937d6a49022062c2604fed19e1051df7f1fb240e0bad78356658eef025680bdd6fcf9b7d7eda01210244d9b2bba3b69b3f83d9659d9dd8acf24de935d2eaacd8627e01b040488a7053"
        },
        "value": 0.04130786,
        "valueSat": 4130786,
        "address": "XkMJ2KA6JTE3UJNu2N2dc553eQfV1QTvQk",
        "sequence": 4294967295
      },
      {
        "txid": "dfa714e4182e195a3bdbe758a7dc8e7cfafb37e3e119b68a0e30abc702da89b1",
        "vout": 0,
        "scriptSig": {
          "asm": "3045022100dc9617b31674b7859331da085768c047b59c581bfe388597b71d3fe6da1e8e9f02204ed1a332eaa95dfa65105c289510a21a460e8d151c3948006f37867046d94d20[ALL] 03512f777462451c214b5d986bb54c49bbbd7ff42467fd88ea83ca7f07b13a5f68",
          "hex": "483045022100dc9617b31674b7859331da085768c047b59c581bfe388597b71d3fe6da1e8e9f02204ed1a332eaa95dfa65105c289510a21a460e8d151c3948006f37867046d94d20012103512f777462451c214b5d986bb54c49bbbd7ff42467fd88ea83ca7f07b13a5f68"
        },
        "value": 0.0378,
        "valueSat": 3780000,
        "address": "XxvXtjXjKem3zZcqM6bnx9fhbGuTvPTaUB",
        "sequence": 4294967295
      },
      {
        "txid": "855b8555ca2b61c6f837c5da0c0fbf3a2a7d0735737227519419eb958595099d",
        "vout": 1,
        "scriptSig": {
          "asm": "3045022100d509905e83b3dd649b4c2e309b7f540af7e665f63690645f09a6232ff305ab34022076ad0463fc24ed45e8fe1b6688f4d29d7e3e39b050bb4b700fbfbc2f45a42406[ALL] 022e75a4fe286ba3ae078593c48bf636272ef80dafca291e89df40aad7b9c564d8",
          "hex": "483045022100d509905e83b3dd649b4c2e309b7f540af7e665f63690645f09a6232ff305ab34022076ad0463fc24ed45e8fe1b6688f4d29d7e3e39b050bb4b700fbfbc2f45a424060121022e75a4fe286ba3ae078593c48bf636272ef80dafca291e89df40aad7b9c564d8"
        },
        "value": 0.0188171,
        "valueSat": 1881710,
        "address": "XhSgnYcpEA26RPhrAghdxUpjSrewB42B28",
        "sequence": 4294967295
      }
    ],
    "vout": [
      {
        "value": 0.10019024,
        "valueSat": 10019024,
        "n": 0,
        "scriptPubKey": {
          "asm": "OP_DUP OP_HASH160 c01285dc32b3becc4bed8477e0e60659b5a09444 OP_EQUALVERIFY OP_CHECKSIG",
          "hex": "76a914c01285dc32b3becc4bed8477e0e60659b5a0944488ac",
          "reqSigs": 1,
          "type": "pubkeyhash",
          "addresses": ["XtCRm5UTh6fzC2ekSKZv3xRc31VFp6rT3r"]
        }
      },
      {
        "value": 11.44772768,
        "valueSat": 1144772768,
        "n": 1,
        "scriptPubKey": {
          "asm": "OP_DUP OP_HASH160 3a34be71eb02ed3a6eea3d13fa13474f74265875 OP_EQUALVERIFY OP_CHECKSIG",
          "hex": "76a9143a34be71eb02ed3a6eea3d13fa13474f7426587588ac",
          "reqSigs": 1,
          "type": "pubkeyhash",
          "addresses": ["XfzcD6HBSkYzW35Z5yaCnpMkdngp1d1uzA"]
        },
        "spentTxId": "257cf06031508e0c98281dce36b8053025b4c940a9babf129ef09055871e4576",
        "spentIndex": 0,
        "spentHeight": 1500000
      }
    ],
    "hex": "010000000450a9234d0f29f5e47b1c0675e7b12475c0785d60ebe62a93ff3e5c96dad5fcf3010000006a473044022036c340bd3d607f4d35f609fcd7e863b344462d99abac75790f434fe875700e9902201f4bfeb7e9826774416f10a936d261439039b4ae83bda71071c2a98edb812985012102288b2d0fd5b943f8ff1bcbf2b66f8f964c271e653f7c657fb268d0ada7869167ffffffffe91c3714d247170d7c59e295baf22a40404bf1550667e189edafecf877e4745a010000006b48304502210090e4539b1dcdb3c48d328990f2f7f6b666750746ce02586db84d92b3937d6a49022062c2604fed19e1051df7f1fb240e0bad78356658eef025680bdd6fcf9b7d7eda01210244d9b2bba3b69b3f83d9659d9dd8acf24de935d2eaacd8627e01b040488a7053ffffffffb189da02c7ab300e8ab619e1e337fbfa7c8edca758e7db3b5a192e18e414a7df000000006b483045022100dc9617b31674b7859331da085768c047b59c581bfe388597b71d3fe6da1e8e9f02204ed1a332eaa95dfa65105c289510a21a460e8d151c3948006f37867046d94d20012103512f777462451c214b5d986bb54c49bbbd7ff42467fd88ea83ca7f07b13a5f68ffffffff9d09958595eb19945127727335077d2a3abf0f0cdac537f8c6612bca55855b85010000006b483045022100d509905e83b3dd649b4c2e309b7f540af7e665f63690645f09a6232ff305ab34022076ad0463fc24ed45e8fe1b6688f4d29d7e3e39b050bb4b700fbfbc2f45a424060121022e75a4fe286ba3ae078593c48bf636272ef80dafca291e89df40aad7b9c564d8ffffffff02d0e09800000000001976a914c01285dc32b3becc4bed8477e0e60659b5a0944488aca0d83b44000000001976a9143a34be71eb02ed3a6eea3d13fa13474f7426587588ac00000000",
    "blockhash": "0000000000000000dbbe79a648034f1c882c848b599a89881ab0e2dd41bb7560",
    "height": 1499992,
    "confirmations": 12148,
    "time": 1625605130,
    "blocktime": 1625605130,
    "instantlock": true,
    "instantlock_internal": false,
    "chainlock": true
  },
  "error": null,
  "id": 1
}
