{
  "result": {
    "txid": "937c6a7cea1e4322083583533f03ee8934f0e6eaad06f45e90ec2507ff11455f",
    "version": 2,
    "type": 0,
    "size": 1461,
    "locktime": 0,
    "vin": [
      {
        "txid": "0248f3eac94127d3dc6d83d9c0d0ff56973a31e9057a442018dae8343065cab1",
        "vout": 8,
        "scriptSig": {
          "asm": "304502210086ac8685c7b7868781cbb765c48e0436d3eda74ac6edf23da72132e13278e4de022062ac56996c6e3e8a224b2921eb784d7a25392a01f2e89c713397d48bb50937b3[ALL|ANYONECANPAY] 03ccadd4d9595c2378fa0c98ba8d8cd4b7be4e4ad4b2e904fd73c0ecfe9329e861",
          "hex": "48304502210086ac8685c7b7868781cbb765c48e0436d3eda74ac6edf23da72132e13278e4de022062ac56996c6e3e8a224b2921eb784d7a25392a01f2e89c713397d48bb50937b3812103ccadd4d9595c2378fa0c98ba8d8cd4b7be4e4ad4b2e904fd73c0ecfe9329e861"
        },
        "value": 0.00100001,
        "valueSat": 100001,
        "address": "XgXkjwnjdemTiaDoR3FkwUQ4pjhDikAMhd",
        "sequence": 4294967295
      },
      {
        "txid": "5da52b535d87b1946941afa561c70a8216c535f470bace91fef70cf56e83999b",
        "vout": 1,
        "scriptSig": {
          "asm": "30440220569c80ff3747e420b1786ee5104a5233d45759e643166c9407b4c0229ef56cf602202ca95d4f15b8582542dd5a5593b24876be7c9fb5181bc4d781a777d6b48112cc[ALL|ANYONECANPAY] 02fab3d30e72185d71842cd884a6e3d9adc56ab6bbde459996206f098981f9009c",
          "hex": "4730440220569c80ff3747e420b1786ee5104a5233d45759e643166c9407b4c0229ef56cf602202ca95d4f15b8582542dd5a5593b24876be7c9fb5181bc4d781a777d6b48112cc812102fab3d30e72185d71842cd884a6e3d9adc56ab6bbde459996206f098981f9009c"
        },
        "value": 0.00100001,
        "valueSat": 100001,
        "address": "XeB2Fh24h4C3b6sCpQ57H8hU6ar1FCkn2F",
        "sequence": 4294967295
      },
      {
        "txid": "78477d2f54446ad28a57d25fab0d3c76370541717b2444f6e2177788ee91f49a",
        "vout": 6,
        "scriptSig": {
          "asm": "304402203bb4244bd714c9cf938d95f336da5bee670ec3c15d265abbb30379ebeac0bac1022078a35a101e4fb73861f08c7fcad10bdb95d07c59942160c62d76678e29076beb[ALL] 02c8916f408453778664df35000fb1b3c066cac3a0907b1b2eabb7d92865196d4d",
          "hex": "47304402203bb4244bd714c9cf938d95f336da5bee670ec3c15d265abbb30379ebeac0bac1022078a35a101e4fb73861f08c7fcad10bdb95d07c59942160c62d76678e29076beb012102c8916f408453778664df35000fb1b3c066cac3a0907b1b2eabb7d92865196d4d"
        },
        "value": 0.00100001,
        "valueSat": 100001,
        "address": "XqbVdjAzCu86JefRgULDcsqR7qxEYAJTRE",
        "sequence": 4294967295
      },
      {
        "txid": "8544dabf30abb762f619a410fc488a41c063974ee82fb92f7c4edce913ff752f",
        "vout": 6,
        "scriptSig": {
          "asm": "3045022100cde415634c0474a9175bc23d2576a77cde5ec028bb0bc2908d5002170d59cc200220115640a82bea00693ff88683fdfca1e353f65891a3eb72559db0721b670f3ca0[ALL|ANYONECANPAY] 03c6654b6710545d4e1dc1f35d58cf09ad132f69420eddb9d891d29320870aa146",
          "hex": "483045022100cde415634c0474a9175bc23d2576a77cde5ec028bb0bc2908d5002170d59cc200220115640a82bea00693ff88683fdfca1e353f65891a3eb72559db0721b670f3ca0812103c6654b6710545d4e1dc1f35d58cf09ad132f69420eddb9d891d29320870aa146"
        },
        "value": 0.00100001,
        "valueSat": 100001,
        "address": "XpYy5k63tHB6napD1MaW22vAXA7brbxqu4",
        "sequence": 4294967295
      },
      {
        "txid": "8544dabf30abb762f619a410fc488a41c063974ee82fb92f7c4edce913ff752f",
        "vout": 13,
        "scriptSig": {
          "asm": "304402204673aa9c5c0201861e9c188505285ff3d3e7e8862bc55ecfc997d5093d65e94002206f5d8884ef83b7d264dfca6ff1fba75420cc8f04e7192480a90f8b38d4e9a916[ALL|ANYONECANPAY] 02896e9cc94309d65444f517d3c29d3d305837e8ceb532cb3c1b6502ba16cd52b5",
          "hex": "47304402204673aa9c5c0201861e9c188505285ff3d3e7e8862bc55ecfc997d5093d65e94002206f5d8884ef83b7d264dfca6ff1fba75420cc8f04e7192480a90f8b38d4e9a916812102896e9cc94309d65444f517d3c29d3d305837e8ceb532cb3c1b6502ba16cd52b5"
        },
        "value": 0.00100001,
        "valueSat": 100001,
        "address": "XwcjkDZMNEmeVTwBZ5FBTcvk3UQ1dbmJnG",
        "sequence": 4294967295
      },
      {
        "txid": "923fd75fcf0f7bcd65d3c48e522a2465dea13a80ce522576d4d8e6c6e3622d78",
        "vout": 9,
        "scriptSig": {
          "asm": "3044022073f7ec23770882c4fcb513f18f34a62360be172e2c7e40932f1d21babf966d3f022014f1aed0d698b3c6d3b2b168a3ec703fd324ee17729fe301fbd360b7fa5e1263[ALL|ANYONECANPAY] 02bd2a7da3af621a319ccebcd363c0a12e621c2fb842e6655b69afafc2a2d24d6a",
          "hex": "473044022073f7ec23770882c4fcb513f18f34a62360be172e2c7e40932f1d21babf966d3f022014f1aed0d698b3c6d3b2b168a3ec703fd324ee17729fe301fbd360b7fa5e1263812102bd2a7da3af621a319ccebcd363c0a12e621c2fb842e6655b69afafc2a2d24d6a"
        },
        "value": 0.00100001,
        "valueSat": 100001,
        "address": "Xsv7QTHvNnCq6y42QBsiA5pi43nUT94AS4",
        "sequence": 4294967295
      },
      {
        "txid": "94239a039bc090124cd472d15572d36a367c265d5cc0a2ea240811f100e66baa",
        "vout": 11,
        "scriptSig": {
          "asm": "3045022100c89edff8daafd9e72254c880fc27de23e840a5307283b7f1011fc7541e623f6202201980e984fa9c7ac450fd3b93a84e1cb504410f773fc16333282a957536a17b33[ALL|ANYONECANPAY] 02e902ab29cd288864bb4080b254d4b7a697d032ed7f25b8280fde8196de33bcaf",
          "hex": "483045022100c89edff8daafd9e72254c880fc27de23e840a5307283b7f1011fc7541e623f6202201980e984fa9c7ac450fd3b93a84e1cb504410f773fc16333282a957536a17b33812102e902ab29cd288864bb4080b254d4b7a697d032ed7f25b8280fde8196de33bcaf"
        },
        "value": 0.00100001,
        "valueSat": 100001,
        "address": "XnU4tuRsaGHDKAmK2y7JDuvYmoWW3DrZTy",
        "sequence": 4294967295
      },
      {
        "txid": "fb04df743fc4c1e6fb398dfcecbc718ec42b718c188cbd79fb084c0f088e6588",
        "vout": 0,
        "scriptSig": {
          "asm": "3044022022bbe7c74e0df5739ff30db4091ee81ae77dbaae83f7949ae9b1e0e6fb84ad1c02200e7079287ec6e2400005ec89e01c81da8f374c995226eabc138cdcb195a77a13[ALL|ANYONECANPAY] 03dda5d0d8f087beac475ff70f6c4d69fed3fd74994058bf92cef7bc6403d97b0b",
          "hex": "473044022022bbe7c74e0df5739ff30db4091ee81ae77dbaae83f7949ae9b1e0e6fb84ad1c02200e7079287ec6e2400005ec89e01c81da8f374c995226eabc138cdcb195a77a13812103dda5d0d8f087beac475ff70f6c4d69fed3fd74994058bf92cef7bc6403d97b0b"
        },
        "value": 0.00100001,
        "valueSat": 100001,
        "address": "XfMK48mnM4rQpMDvJa1F9tRQgSBG4rMcef",
        "sequence": 4294967295
      }
    ],
    "vout": [
      {
        "value": 0.00100001,
        "valueSat": 100001,
        "n": 0,
        "scriptPubKey": {
          "asm": "OP_DUP OP_HASH160 663f66de9fc302932d6baf0ea7a2288447a1193b OP_EQUALVERIFY OP_CHECKSIG",
          "hex": "76a914663f66de9fc302932d6baf0ea7a2288447a1193b88ac",
          "reqSigs": 1,
          "type": "pubkeyhash",
          "addresses": ["Xk1Ui4FWC1p5PaTDWf9e8PW7u3Hbpz7erp"]
        },
        "spentTxId": "ea5ac2407685820498afd39b7b0878b33ad0456e1f20a231d39d96c4c0e400a2",
        "spentIndex": 89,
        "spentHeight": 1505277
      },
      {
        "value": 0.00100001,
        "valueSat": 100001,
        "n": 1,
        "scriptPubKey": {
          "asm": "OP_DUP OP_HASH160 6b6bdd27f160fb64127dc985ed8e7182eb748b85 OP_EQUALVERIFY OP_CHECKSIG",
          "hex": "76a9146b6bdd27f160fb64127dc985ed8e7182eb748b8588ac",
          "reqSigs": 1,
          "type": "pubkeyhash",
          "addresses": ["XkUqMHzhjDj5N3S18ZUuG8hXAbSmaebut1"]
        },
        "spentTxId": "628510c55724ff0dfdb877c49dfce2a5a1608282ebc15a815679bb242c4f25fd",
        "spentIndex": 3,
        "spentHeight": 1497275
      },
      {
        "value": 0.00100001,
        "valueSat": 100001,
        "n": 2,
        "scriptPubKey": {
          "asm": "OP_DUP OP_HASH160 b5d25d9b63414564a77c3b04056b818e9f1b2516 OP_EQUALVERIFY OP_CHECKSIG",
          "hex": "76a914b5d25d9b63414564a77c3b04056b818e9f1b251688ac",
          "reqSigs": 1,
          "type": "pubkeyhash",
          "addresses": ["XsGE9SGk87TVevq6xB8qwTfeEcAqrb7EFB"]
        },
        "spentTxId": "77a8b4240d587f0c8df78528b1de9242af98e93e17479670693d933ad3801968",
        "spentIndex": 2,
        "spentHeight": 1500000
      },
      {
        "value": 0.00100001,
        "valueSat": 100001,
        "n": 3,
        "scriptPubKey": {
          "asm": "OP_DUP OP_HASH160 b6156bab14d0c7dec7f6ac245b452a7a50d0acea OP_EQUALVERIFY OP_CHECKSIG",
          "hex": "76a914b6156bab14d0c7dec7f6ac245b452a7a50d0acea88ac",
          "reqSigs": 1,
          "type": "pubkeyhash",
          "addresses": ["XsHcUVdsTmq2r43uE6Y2J1H1aM1YdJ3uVk"]
        },
        "spentTxId": "b0e3f7e213583900469d86a677034a6871e93a7120a967bc5122f6e1e919004d",
        "spentIndex": 4,
        "spentHeight": 1497279
      },
      {
        "value": 0.00100001,
        "valueSat": 100001,
        "n": 4,
        "scriptPubKey": {
          "asm": "OP_DUP OP_HASH160 ba155de1fdedf51739edca881744a1e5bf0c921f OP_EQUALVERIFY OP_CHECKSIG",
          "hex": "76a914ba155de1fdedf51739edca881744a1e5bf0c921f88ac",
          "reqSigs": 1,
          "type": "pubkeyhash",
          "addresses": ["Xsem7X8cBPybygwhiGvLEmCQ4utPe5sXGR"]
        },
        "spentTxId": "27ad54e3527cfc23d626df5964b8ad5bc9e0754fb93ab772f58401150c07dd75",
        "spentIndex": 7,
        "spentHeight": 1497276
      },
      {
        "value": 0.00100001,
        "valueSat": 100001,
        "n": 5,
        "scriptPubKey": {
          "asm": "OP_DUP OP_HASH160 c93abad2652c3eedc4c1c670faefa475c1307ce3 OP_EQUALVERIFY OP_CHECKSIG",
          "hex": "76a914c93abad2652c3eedc4c1c670faefa475c1307ce388ac",
          "reqSigs": 1,
          "type": "pubkeyhash",
          "addresses": ["Xu2r1RkUTMC1KaWR3QTfJjs8TwntS2XoFM"]
        },
        "spentTxId": "628510c55724ff0dfdb877c49dfce2a5a1608282ebc15a815679bb242c4f25fd",
        "spentIndex": 4,
        "spentHeight": 1497275
      },
      {
        "value": 0.00100001,
        "valueSat": 100001,
        "n": 6,
        "scriptPubKey": {
          "asm": "OP_DUP OP_HASH160 d0423b36871466604c32295716ded79d07a63cac OP_EQUALVERIFY OP_CHECKSIG",
          "hex": "76a914d0423b36871466604c32295716ded79d07a63cac88ac",
          "reqSigs": 1,
          "type": "pubkeyhash",
          "addresses": ["Xug1iz7xCx5qac3Gb1jpTyPimagNppVjYS"]
        },
        "spentTxId": "4ed737566ddaeb7d9592d25fa022694eabfb00dcc9220b42eecfceb5d2fc8853",
        "spentIndex": 6,
        "spentHeight": 1497276
      },
      {
        "value": 0.00100001,
        "valueSat": 100001,
        "n": 7,
        "scriptPubKey": {
          "asm": "OP_DUP OP_HASH160 d534eb4fa0e667fee8419ff5a411009855285c02 OP_EQUALVERIFY OP_CHECKSIG",
          "hex": "76a914d534eb4fa0e667fee8419ff5a411009855285c0288ac",
          "reqSigs": 1,
          "type": "pubkeyhash",
          "addresses": ["Xv8BA17JX5Krmjrq35j7ZgtSCVtajkbur7"]
        },
        "spentTxId": "46b9837e8e1eaab177276770983e0dec8093da930b92bd610219303c3ff98366",
        "spentIndex": 3,
        "spentHeight": 1497277
      }
    ],
    "hex": "0200000008b1ca653034e8da1820447a05e9313a9756ffd0c0d9836ddcd32741c9eaf34802080000006b48304502210086ac8685c7b7868781cbb765c48e0436d3eda74ac6edf23da72132e13278e4de022062ac56996c6e3e8a224b2921eb784d7a25392a01f2e89c713397d48bb50937b3812103ccadd4d9595c2378fa0c98ba8d8cd4b7be4e4ad4b2e904fd73c0ecfe9329e861ffffffff9b99836ef50cf7fe91ceba70f435c516820ac761a5af416994b1875d532ba55d010000006a4730440220569c80ff3747e420b1786ee5104a5233d45759e643166c9407b4c0229ef56cf602202ca95d4f15b8582542dd5a5593b24876be7c9fb5181bc4d781a777d6b48112cc812102fab3d30e72185d71842cd884a6e3d9adc56ab6bbde459996206f098981f9009cffffffff9af491ee887717e2f644247b71410537763c0dab5fd2578ad26a44542f7d4778060000006a47304402203bb4244bd714c9cf938d95f336da5bee670ec3c15d265abbb30379ebeac0bac1022078a35a101e4fb73861f08c7fcad10bdb95d07c59942160c62d76678e29076beb012102c8916f408453778664df35000fb1b3c066cac3a0907b1b2eabb7d92865196d4dffffffff2f75ff13e9dc4e7c2fb92fe84e9763c0418a48fc10a419f662b7ab30bfda4485060000006b483045022100cde415634c0474a9175bc23d2576a77cde5ec028bb0bc2908d5002170d59cc200220115640a82bea00693ff88683fdfca1e353f65891a3eb72559db0721b670f3ca0812103c6654b6710545d4e1dc1f35d58cf09ad132f69420eddb9d891d29320870aa146ffffffff2f75ff13e9dc4e7c2fb92fe84e9763c0418a48fc10a419f662b7ab30bfda44850d0000006a47304402204673aa9c5c0201861e9c188505285ff3d3e7e8862bc55ecfc997d5093d65e94002206f5d8884ef83b7d264dfca6ff1fba75420cc8f04e7192480a90f8b38d4e9a916812102896e9cc94309d65444f517d3c29d3d305837e8ceb532cb3c1b6502ba16cd52b5ffffffff782d62e3c6e6d8d4762552ce803aa1de65242a528ec4d365cd7b0fcf5fd73f92090000006a473044022073f7ec23770882c4fcb513f18f34a62360be172e2c7e40932f1d21babf966d3f022014f1aed0d698b3c6d3b2b168a3ec703fd324ee17729fe301fbd360b7fa5e1263812102bd2a7da3af621a319ccebcd363c0a12e621c2fb842e6655b69afafc2a2d24d6affffffffaa6be600f1110824eaa2c05c5d267c366ad37255d172d44c1290c09b039a23940b0000006b483045022100c89edff8daafd9e72254c880fc27de23e840a5307283b7f1011fc7541e623f6202201980e984fa9c7ac450fd3b93a84e1cb504410f773fc16333282a957536a17b33812102e902ab29cd288864bb4080b254d4b7a697d032ed7f25b8280fde8196de33bcafffffffff88658e080f4c08fb79bd8c188c712bc48e71bcecfc8d39fbe6c1c43f74df04fb000000006a473044022022bbe7c74e0df5739ff30db4091ee81ae77dbaae83f7949ae9b1e0e6fb84ad1c02200e7079287ec6e2400005ec89e01c81da8f374c995226eabc138cdcb195a77a13812103dda5d0d8f087beac475ff70f6c4d69fed3fd74994058bf92cef7bc6403d97b0bffffffff08a1860100000000001976a914663f66de9fc302932d6baf0ea7a2288447a1193b88aca1860100000000001976a9146b6bdd27f160fb64127dc985ed8e7182eb748b8588aca1860100000000001976a914b5d25d9b63414564a77c3b04056b818e9f1b251688aca1860100000000001976a914b6156bab14d0c7dec7f6ac245b452a7a50d0acea88aca1860100000000001976a914ba155de1fdedf51739edca881744a1e5bf0c921f88aca1860100000000001976a914c93abad2652c3eedc4c1c670faefa475c1307ce388aca1860100000000001976a914d0423b36871466604c32295716ded79d07a63cac88aca1860100000000001976a914d534eb4fa0e667fee8419ff5a411009855285c0288ac00000000",
    "blockhash": "000000000000001968bcd3e7b7680066cf6056055f3f030ce7597fb5a7a3b15b",
    "height": 1497275,
    "confirmations": 14870,
    "time": 1625176670,
    "blocktime": 1625176670,
    "instantlock": true,
    "instantlock_internal": false,
    "chainlock": true
  },
  "error": null,
  "id": 1
}
