{
  "result": {
    "txid": "f3fcd5da965c3eff932ae6eb605d78c07524b1e775061c7be4f5290f4d23a950",
    "version": 1,
    "type": 0,
    "size": 373,
    "locktime": 0,
    "vin": [
      {
        "txid": "e01787577c4052fc40c21684a33de75ee6f72b710df53f12a0fbd200af977b29",
        "vout": 0,
        "scriptSig": {
          "asm": "30440220029130f548f8943d459b0e7a8c4748cca1d9fef167a982d95bf76d800c6ea36102203a25685f05884abbdc3ba76c75c95df7e43907a8aa539744f7a0915763010baf[ALL] 03669de27686236c4069c88db948a8cd382f404157e28a4ccd056b008b07769bf1",
          "hex": "4730440220029130f548f8943d459b0e7a8c4748cca1d9fef167a982d95bf76d800c6ea36102203a25685f05884abbdc3ba76c75c95df7e43907a8aa539744f7a0915763010baf012103669de27686236c4069c88db948a8cd382f404157e28a4ccd056b008b07769bf1"
        },
        "value": 5.0,
        "valueSat": 500000000,
        "address": "Xfnngwhnc2vVNSN1a3EZzaVJHvNmA92GUZ",
        "sequence": 4294967295
      },
      {
        "txid": "683813d4e72a91f0eb92df5b5af95411f8bf2b9b82c4dfeb6419cbcde7690688",
        "vout": 1,
        "scriptSig": {
          "asm": "3045022100e5ddd84efae91bf8ff07bf22d7c6052a352093e5c7333018c77cedb50e4c641002203c597617abb8519d740f05409afabc17fab79a64e88a05deb95e19c4db396535[ALL] 0396df7576ecbb7398762d5f4a128daedbb41b5c8d67af687b2be2ff712d0ee148",
          "hex": "483045022100e5ddd84efae91bf8ff07bf22d7c6052a352093e5c7333018c77cedb50e4c641002203c597617abb8519d740f05409afabc17fab79a64e88a05deb95e19c4db39653501210396df7576ecbb7398762d5f4a128daedbb41b5c8d67af687b2be2ff712d0ee148"
        },
        "value": 6.45437188,
        "valueSat": 645437188,
        "address": "XhtFWkn28siJHLb9VBd7XhoFeWVfpJ7HBH",
        "sequence": 4294967295
      }
    ],
    "vout": [
      {
        "value": 0.00377892,
        "valueSat": 377892,
        "n": 0,
        "scriptPubKey": {
          "asm": "OP_DUP OP_HASH160 803aac493dc5edae524d12518e0b5c4561e0da60 OP_EQUALVERIFY OP_CHECKSIG",
          "hex": "76a914803aac493dc5edae524d12518e0b5c4561e0da6088ac",
          "reqSigs": 1,
          "type": "pubkeyhash",
          "addresses": ["XnNrcUim5G3FRLjzmUxpCENADm8BHMGVKc"]
        },
        "spentTxId": "5f51ff73b4175304a8551fd50730375918790e22f9373ef79c5614360af0415c",
        "spentIndex": 14,
        "spentHeight": 1499979
      },
      {
        "value": 11.45029296,
        "valueSat": 1145029296,
        "n": 1,
        "scriptPubKey": {
          "asm": "OP_DUP OP_HASH160 f0ebb35211f09ae50d3d6e23f3945770ecc38be2 OP_EQUALVERIFY OP_CHECKSIG",
          "hex": "76a914f0ebb35211f09ae50d3d6e23f3945770ecc38be288ac",
          "reqSigs": 1,
          "type": "pubkeyhash",
          "addresses": ["XxeiN3miqCEGEr6uZtcDBYFLHmCGHGa6zc"]
        },
        "spentTxId": "9d340b9f72976b1a85679e0b617d46a442ae654fc964eaeea4928e56841c94cb",
        "spentIndex": 0,
        "spentHeight": 1499992
      }
    ],
    "hex": "0100000002297b97af00d2fba0123ff50d712bf7e65ee73da38416c240fc52407c578717e0000000006a4730440220029130f548f8943d459b0e7a8c4748cca1d9fef167a982d95bf76d800c6ea36102203a25685f05884abbdc3ba76c75c95df7e43907a8aa539744f7a0915763010baf012103669de27686236c4069c88db948a8cd382f404157e28a4ccd056b008b07769bf1ffffffff880669e7cdcb1964ebdfc4829b2bbff81154f95a5bdf92ebf0912ae7d4133868010000006b483045022100e5ddd84efae91bf8ff07bf22d7c6052a352093e5c7333018c77cedb50e4c641002203c597617abb8519d740f05409afabc17fab79a64e88a05deb95e19c4db39653501210396df7576ecbb7398762d5f4a128daedbb41b5c8d67af687b2be2ff712d0ee148ffffffff0224c40500000000001976a914803aac493dc5edae524d12518e0b5c4561e0da6088acb0c23f44000000001976a914f0ebb35211f09ae50d3d6e23f3945770ecc38be288ac00000000",
    "blockhash": "000000000000000c8938a18eed501a337335ca99ebed5184b534e4ed499af7a4",
    "height": 1499977,
    "confirmations": 12221,
    "time": 1625603212,
    "blocktime": 1625603212,
    "instantlock": true,
    "instantlock_internal": false,
    "chainlock": true
  },
  "error": null,
  "id": 1
}
