{
  "result": {
    "txid": "b4c78aac6d5003f969d78c74920b0a47cc92d852ddc7a11d28141a71dafbe632",
    "version": 1,
    "type": 0,
    "size": 191,
    "locktime": 0,
    "vin": [
      {
        "txid": "5da79b6f016521a92b6ed45803f99950649efdeb495fd27e3e7d309ac611336c",
        "vout": 1,
        "scriptSig": {
          "asm": "304402203e30292fb5a3d9416edf24ce9f8942b4dd64209fb55dc1cd662f1a5c8467b7a2022014b1902b1151d41af9575fd93f54ff5c3cf9335383957adab00ec054b2fdbc49[ALL] 0342852fb33b2e1ea00036cf08c08e88a10302d11f2b8eb290d8023d5427e47f5d",
          "hex": "47304402203e30292fb5a3d9416edf24ce9f8942b4dd64209fb55dc1cd662f1a5c8467b7a2022014b1902b1151d41af9575fd93f54ff5c3cf9335383957adab00ec054b2fdbc4901210342852fb33b2e1ea00036cf08c08e88a10302d11f2b8eb290d8023d5427e47f5d"
        },
        "value": 0.05761375,
        "valueSat": 5761375,
        "address": "XcbkQEfVyoRFGxnnXEZhguekxvqFLbmvBj",
        "sequence": 4294967295
      }
    ],
    "vout": [
      {
        "value": 0.05759115,
        "valueSat": 5759115,
        "n": 0,
        "scriptPubKey": {
          "asm": "OP_DUP OP_HASH160 1fe3952c5f623669fd5d5a4a47cf132037a5a4c2 OP_EQUALVERIFY OP_CHECKSIG",
          "hex": "76a9141fe3952c5f623669fd5d5a4a47cf132037a5a4c288ac",
          "reqSigs": 1,
          "type": "pubkeyhash",
          "addresses": ["XdbTQvYZyWapEewYfYKp62X3utk8EWU7E5"]
        },
        "spentTxId": "f8e2fb382679cece56b2f8a93ec8c1da1b135daf1fac96a2504968b07a3b5323",
        "spentIndex": 4,
        "spentHeight": 1500001
      }
    ],
    "hex": "0100000001f3fe8fea44fa1799839d40ae54503452fb4f3b65436edb1529ddbf33b289dba5010000006a47304402203e30292fb5a3d9416edf24ce9f8942b4dd64209fb55dc1cd662f1a5c8467b7a2022014b1902b1151d41af9575fd93f54ff5c3cf9335383957adab00ec054b2fdbc4901210342852fb33b2e1ea00036cf08c08e88a10302d11f2b8eb290d8023d5427e47f5dffffffff018be05700000000001976a9141fe3952c5f623669fd5d5a4a47cf132037a5a4c288ac00000000",
    "blockhash": "0000000000000002cb2f0d030e9744cd6d93b913b80958b232e4f0b84d828ecf",
    "height": 1500000,
    "confirmations": 12076,
    "time": 1625606293,
    "blocktime": 1625606293,
    "instantlock": true,
    "instantlock_internal": false,
    "chainlock": true
  },
  "error": null,
  "id": 1
}
